:1021B000604089A93031323334353637383961627D
:1021C000636465666768696A6B6C6D6E6F70717267
:1021D000737475767778797A414243444546474827
:1021E000494A4B4C4D4E4F505152535455565758E7
:0421F000595A0D002B
:10434300124AD590831D7403F09083217410F0906A
:1043530081E5E0FF124FC7D2AF1245F150097D64EA
:104363007C007F021246C3124FB690831DE024FEE9
:10437300601214601A24FE601E240470EA7F011286
:104383002D9380E31244C290831D7401F080D89072
:10439300831D7402F080D012481490831D7401F0C1
:0243A30080C5D3
:0850FE005F6E7D8CAABBCCDDC6
:1021F400448315AA000055664A83190000000000B4
:1022040000000000000000000000000000000000CA
:1022140000000000000000000000000000000000BA
:1022240000000000000000000000000000000000AA
:10223400000000000000000000000000000000009A
:1028440000000000005083050000000000000000AC
:0828540000000000000000007C
:0E451600908199EBF0A3EAF0A3E9F0A3EDF099
:10452400E4FE90819CE0FD14F0ED602F908199E011
:10453400FBA3E475F001122AAEA9F0FA1229C96EA0
:10454400FE7F08EFD3940040D9EE30E70725E064FE
:0D45540031FE8004EE25E0FE1F80E8AF067A
:014561002237
:054E34009081FEEDF08D
:104E39001229C9B4FE0A9000011229E264EF600246
:034E4900C322D3AE
:014E4C002243
:10488F00908194EBF0A3EAF0A3E9F0A3ECF0A3ED91
:01489F00F028
:1048A00014FD124516908194E0FBA3E0FAA3E0F911
:1048B000908198E024FFFD908197E034FF8D82F590
:0A48C000831229E2B50702D322C3D8
:0148CA0022CB
:1045AA009081997402F0908316EFF0E4908319F0E9
:1045BA00A3F0908319F0A3F090819F7404F0A37480
:1045CA0001F0A37481F0A37494F0A37410F0A3749F
:1045DA0001F0A37481F0A37498F07B017A837915B2
:0745EA007D507F01023DA995
:104F4800D390831AE09458908319E094024002D3D6
:034F580022C3224F
:10322C009081CCEBF0A3EAF0A3E9F09081CCE0FB29
:10323C00A3E0FAA3E0F99000011229E2541FFE90DA
:10324C008321E06E700302345090831B7403F0A34F
:09325C0074E8F0EF70030234394C
:103265001229C9FF7E0024FFF582EE34FFF5831293
:1032750029E29081CFF074FE2FF582EE34FFF583BD
:103285001229E29081D0F0E92404F9E43AFAC00267
:10329500C0019081CCA3E0FAA3E0F91229C924FA70
:1032A500FDD001D002123E359081D1EEF0A3EFF0B2
:1032B5009081D1E0FCA3E0FDECFF9081D0E0FBEF35
:1032C5006B7001E46003023450AF059081CFE0FDDF
:0A32D500EF6D7001E4600302345055
:1032DF009081CCE0FBA3E0FAA3E0F9900001122962
:1032EF00E2C4135407FF90831FF09000031229E2EA
:0A32FF009081D3F0EF70030233FE5C
:10330900E49081D8F09081CCA3A39000021229E225
:103319009081DAF075F064849081D9F06017E02427
:1033290030FF9081D8E0FE04F074D42EF582E434A5
:1033390081F583EFF09081DAE0FF75F06484E5F0C0
:1033490075F00A849081D9F09081D8E07004A3E0E7
:10335900601A9081D9E02430FE9081D8E0FD04F014
:1033690074D42DF582E43481F583EEF0EF75F00A1B
:1033790084E5F02430FF9081D8E0FE04F074D42E67
:10338900F582E43481F583EFF090831FE024FE6039
:103399001D146030240270409081D8E0FF04F0745D
:1033A900D42FF582E43481F5837409F0802A908161
:1033B900D8E0FF04F074D42FF582E43481F58374E6
:1033C90020F080149081D8E0FF04F074D42FF582A6
:1033D900E43481F583742DF0124FB67B017A81793B
:1033E900D49081D8E0FD7C009081D3E0547F908116
:0533F9009EF0122FE020
:1033FE00124FB69081CCE0FBA3E0FAA3E02404F9CF
:10340E00E43AFAC002C0019081CCA3E0FAA3E0F93D
:10341E001229C924FAFDE434FFFC9081D3E0547FD5
:0B342E0090819EF0D001D002122FE030
:103439009081CCE0FBA3E0FAA3E0F9900001122906
:08344900E2541F908321F022E0
:103FC600908194EBF0A3EAF0A3E9F090831B7403CD
:083FD600F0A374E8F0EF606055
:103FDE00908194E0FBA3E0FAA3E0F990000112298E
:103FEE00E2FF908197E4F0A3EFF0E0F8E4F0E890C0
:103FFE008197F09000021229E2FF908198E02FF055
:10400E00908197E03400F0124FB6908194E0FBA3BC
:10401E00E0FAA3E02406F9E43AFA908198E024F954
:10402E00FD908197E034FFFCE490819EF0122FE02A
:01403E00225F
:052D9300908185EFF0C6
:102D9800E490818DF0A3F0F9A3C9F0A3F0A3E9F0C2
:102DA800E4908319F0A3F0908186F0124FB69081D9
:102DB80085E0700B7B017A817988124A77801378D5
:102DC800887C817D017BFF7A4379A57E007F041290
:102DD80029A3908186E0601A75F00FA42423F97462
:102DE8008335F0FA90818F7401F0A3EAF0A3E9F03B
:102DF800800E90818F7401F0A37483F0A37405F0A2
:102E080090819F7404F090818FE0F9A3E0FAA3E029
:102E18009081A0C9F0A3EAF0A3E9F0A37410F0A38D
:102E28007401F0A37481F0A37487F07B017A81792F
:102E3800887D507F01123DA99204200403022FDDF2
:102E4800E4908319F0A3F090818FE0FBA3E0FAA34C
:102E5800E0F91229C990818CF0D3946650047F015F
:102E680080027F0090818CE0FEC3940140047D01C4
:102E780080027D00ED5F7003022F65908186E0245B
:102E880001FDE433FCEE6D7001EC6003022F52A3E8
:102E9800E024FFFFE434FFFEE92401F9E43AFAC034
:102EA80003C00290818FE0FBA3E0FAA3E0F8AC0234
:102EB800AD03D002D0031229A3908187E0FF24FF3D
:102EC800FDE434FFFC90818EE02DF090818DE03C94
:102ED800F090818CE064016003022F6990818FE09B
:102EE800FBA3E0FAA3E02401F9E43AFAEF24FEFD9B
:102EF80012451690818FE0FBA3E0FAA3E0F91229AE
:102F0800C96F6003022FDF9000041229E2FF90834B
:102F180021E0B50714908185E0FF7B017A8379234E
:102F2800123FC69083217410F0908187E024FFFF40
:102F3800E434FFFE78237C837D0190818FE0FBA33E
:102F4800E0FAA3E0F91229A38017908186E0FF90A8
:102F5800818CE0B50703022DB3C2048078C20480D7
:0C2F680074300462908185E06401705AAE
:102F7400908324E0FF908192E4F0A3EFF0E0F8E482
:102F8400F0E8908192F0908325E0FF908193E02F08
:102F9400F0908192E03400F090818DE0FEA3E0FF98
:102FA400908192E0FCA3E0FDB5071FECB5061B7B06
:102FB400017A83792312488F501F908326E0541F8F
:0A2FC400FF908321F01245AA800F50
:102FCE00908186E004F0E0C394645003022DB3A216
:012FDE0004EE
:012FDF0022CF
:1044C20078817C817D017BFF7A5079FE7E007F04BA
:1044D2001229A37F19121806124D547B017A817991
:1044E2008112180EE4FF122D93E4FF122D93E4FFC4
:1044F200122D93780EE62401FFE433FE7C007D1931
:10450200122A43AF05121806124D547B007A007925
:044512000B02180E72
:1048140078817C817D017BFF7A5179027E007F045F
:104824001229A37F007E16124E667B017A8179815C
:1048340090818AE4F0A37404F07F007E16123C8E0B
:0E484400C2D1E4F5A8F5A9F5AAF5AB02000073
:085106000000000000000000A1
:10285C00603F896A3031323334353637383961620A
:10286C00636465666768696A6B6C6D6E6F707172B4
:10287C00737475767778797A414243444546474874
:10288C00494A4B4C4D4E4F50515253545556575834
:0D289C00595A004789630000000000000D3C
:104905009081C6EFF07E017F007D007B017A827980
:1049150003122B179082037403F090820B74AAF094
:10492500E4A3F09081C6E090820DF0240FF582E4B7
:084935003482F58374BBF0220B
:104EF600D2D17B017A82790390820DE0240DFDE404
:054F060033FC023A2417
:104A47009081C4EFF0A3EDF07F021249059081C475
:104A5700E090820EF09081C5E0FF90820FF0908287
:104A67000EE0FE90820DE06E6F908210F0024EF61F
:104209009081C7EFF0908201E070397866E6F0E4BA
:10421900A3F09081C7E0FFD394084052EF24F8FF40
:10422900E434FFFE908202E02403F9E43482A80119
:10423900FC7D017B007A0079681229A39081C7E08F
:1042490024F880239081C7E0FF7E00908202E02459
:1042590003F9E43482A801FC7D017B007A007960CE
:0F4269001229A39081C7E0FF908202E02FF0227C
:104DAC00908206E02460700C90831D7405F07D8069
:0C4DBC00E4FF80047D8F7F01124A472233
:054C09009081ABE0FF0B
:104C0E009081B2EFF0601B9081B2E0B401047F019D
:104C1E00800D9081B2E0B402047F0380027F071200
:034C2E004E7F2294
:093733009081ABEDF0AB07AA0692
:10373C007C007D0A122A439081B1EDF07C007D0A59
:10374C00AF03AE02122A43AA06AB077C007D0A1215
:10375C002A439081B0EDF07C007D0AAF03AE0212DB
:10376C002A43AA06AB077C007D0A122A439081AF3C
:10377C00EDF07C007D0AAF03AE02122A43AA06AB21
:10378C00077C007D0A122A439081AEEDF07C007D0F
:10379C000AAF03AE02122A43AA06AB077C007D0ACD
:1037AC00122A439081ADEDF0E4FD7F041248CB1258
:1037BC004C09E49081ACF09081ACE0FFC3940550CF
:1037CC005B74AD2FF582E43481F583E0FF9081AC1E
:1037DC00700FE024ADF582E43481F5837462F080DF
:1037EC0012E0FEEF2458FF74AD2EF582E43481F51F
:1037FC0083EFF09081ACE024ADF582E43481F58365
:10380C00E0FD7F041248CB124C09E4FD7F04124802
:10381C00CB124C099081ACE004F0809BE4FDFF12CC
:0A382C0048CB9081ABE0FF024C0E88
:103D1C009081ABEBF0A3EAF0A3E9F0A3ECF0A3EDF8
:013D2C00F0A6
:103D2D00643F4C6002C322E49081B0F09081AFE01B
:103D3D0024FFFF9081AEE034FFFE9081B0E0C39F81
:103D4D00E49E50319081ABE0FBA3E0FAA3E0F99043
:103D5D0081B0E0FFF5827583001229E2FE746A2FAF
:103D6D00F582E43489F583E06E6002C3229081B060
:103D7D00E004F080B79081ABE0FBA3E0FAA3E0F99B
:103D8D009081AFE024FFFF9081AEE034FF8F82F58C
:0B3D9D00831229E2640D6002C322D3F0
:013DA80022F8
:1049AB007E05E4FF74632EF582E43489F583E0041D
:1049BB00F074632EF582E43489F583E0B40A127443
:1049CB00632EF582E43489F583E4F00F1EEEF46078
:0449DB0003EF70CEA8
:0149DF0022B5
:102FE000908199EBF0A3EAF0A3E9F0A3ECF0A3ED54
:012FF000F0F0
:102FF100789F7C817D017BFF7A5179067E007F0875
:103001001229A31249AB908199E0FBA3E0FAA3E056
:10301100F9A3E0FCA3E0FD123D1C404E908199E034
:10302100FBA3E0FAA3E0F97465122A0F908199E0FD
:10303100FBA3E0FAA3E0F99000017472122A219037
:1030410000027472122A21900003746F122A2190D7
:1030510000047472122A21900005740D122A219025
:10306100819CE4F0A37406F08070908963E02430C1
:10307100FF908199E0FBA3E0FAA3E0F9EF122A0F98
:10308100908964E02430FF908199E0FBA3E0FAA3EA
:10309100E0F9900001EF122A21908965E024309037
:1030A1000002122A21908966E02430900003122A3E
:1030B10021908967E02430900004122A21908968C8
:1030C100E02430900005122A21900006740D122A86
:1030D1002190819CE4F0A37407F090819C74FFF52A
:1030E100F0122AAE45F0700302322A9081E3E0B477
:1030F10002079081E4E030E7077F32124E7FC3225E
:10310100124FB6908199E0FBA3E475F001122AAE4B
:10311100A9F0FA1229C99081A7F0E0F4706FC39069
:0D312100819DE0940290819CE09400405E4E
:10312E00908199E0FBA3E475F001122AAEA9F0FAA2
:10313E001229C9FF9081A9E4F0A3EFF0E0F8E4F0C2
:10314E00E89081A9F0908199E0FBA3E475F001125B
:10315E002AAEA9F0FA1229C9FF9081AAE02FF090A9
:10316E0081A9E03400F090819DE024FEF090819CD6
:0E317E00E034FFF09081A9E0FEA3E0FF800E98
:10318C00C3229081A7E0FFC39420400D7E00908164
:10319C009EE0FD1237330230DB902192E493FB74F6
:1031AC000193FA740293F99081A7E0FF75F002A4E1
:1031BC00F58285F0831229E29081A8F07003023029
:1031CC00DB9081A8E09081A1F0EF75F002A4FF9054
:1031DC002192E493FB740193FA7402932FF9EA356C
:1031EC00F0FA9000011229E290819FF07B017A8124
:1031FC00799F7D0812474D90819EE0FF124C0EE4A2
:10320C0090819FF09081A1F07B017A81799F7D085C
:0F321C0012474D90819EE0FF124C0E0230DBD323
:01322B002280
:06515100C2D153AAFC22AA
:06515700C2D143AA0322AD
:1043A5000201FE030202FD030203FC030204FB03F8
:1043B500001932011A33021B34031C35041D36055E
:1043C5001E37061F3807203908213A09223B0A23E0
:1043D5003C0B243D0C253E0D263F0E27400F284162
:1043E500102942112A43122B44132C45142D46152E
:1043F5002E47162F4817304918314A505050FFFFA5
:02440500FFFFB7
:0A50A700780906E6B40302E4F622DD
:05180600780AA607228C
:104CCD007809E6FF08E675F003A424B5F582E4340F
:104CDD0043F583E5822FF582E43583F583E49378FC
:034CED0008F622A4
:104D54001250A7124CCD7808E6FF1250E37B017A7B
:0D4D64008179A77F05124B899081A7E0FFA0
:014D7100221F
:0B4A7700908194EBF0A3EAF0A3E9F0BB
:104A82007B017A817997124852908194E0FBA3E0EE
:104A9200FAA3E0F8AC02AD037B017A81799B7E0038
:054AA2007F040229A3BE
:03180E00024B3159
:1045F100124F0B7B007A00790B124A77780EE62472
:1046010001FFE433FE7C007D19122A43AF05121825
:1046110006E4908181F01238365008124D54125040
:10462100C5D3227F0A124E7F908181E004F0E0C35E
:05463100940340E2C308
:014636002261
:103DA90090819AEFF0A3EDF0A3EBF0A3EAF0A3E979
:013DB900F019
:103DBA00C20512510E90819AE0FF90819CE0F9A30E
:103DCA00E0FAA3E09081AAC9F0A3EAF0A3E9F0908F
:103DDA00819FE09081ADF09081A0E0F9A3E0FAA381
:103DEA00E09081AEC9F0A3EAF0A3E9F09081A3E0E4
:103DFA009081B1F09081A4E0F9A3E0FAA3E0908168
:103E0A00B2C9F0A3EAF0A3E9F090819BE0FBE4FDDC
:103E1A00123932920520050D124F484008124D54AE
:0A3E2A00124FB680901250C5A20599
:013E3400226B
:03180300021811B7
:0118110032A4
:03180B00021812AE
:0118120032A3
:031813000218199F
:01181900329C
:03181B0002181A96
:01181A00329B
:031823000240B8C8
:1040B800C0E0C0F0C083C082C0D075D000C000C0CE
:0D40C80001C002C003C004C005C006C0074F
:1040D500A2D19200D2D153E17F780F0690831AE0E6
:1040E50004F07006908319E004F090831BE07002E1
:1040F500A3E0600E90831CE024FFF090831BE03466
:09410500FFF012182EA20092D165
:10410E00D007D006D005D004D003D002D001D00005
:0B411E00D0D0D082D083D0F0D0E032AF
:03182B00024F2049
:024F2000C0D0FF
:0F4F2200A2D19201D2D153F17FC2D1A20192D17B
:034F3100D0D032AB
:03184B00024CF05C
:044CF000C0E0C0D090
:104CF400A2D19202D2D1E58430E7097585FA5384B2
:0A4D04007F758500C2D1A20292D192
:054D0E00D0D0D0E0321E
:0318530002182157
:011821003294
:03185B00024C310B
:084C3100C0E0C083C082C0D0C6
:104C3900A2D19203D2D130ED08C2ED908180E5EB8B
:074C4900F0C2D1A20392D1D9
:094C5000D0D0D082D083D0E03234
:10188E00000000000000000000000000000000004A
:10189E002A002B0051000000000028003A003B00F7
:1018AE003C003D003E003F0040004100420043002E
:1018BE004400450000002900000000000000000068
:1018CE002C001E2034202020212022202420340011
:1018DE002620272025202E2036002D003700380008
:1018EE0027001E001F0020002100220023002400DC
:1018FE00250026003320330036202E0037203820D6
:10190E001F200420052006200720082009200A2079
:10191E000B200C200D200E200F2010201120122045
:10192E0013201420152016201720182019201A20F5
:10193E001B201C201D202F003100300023202D20C5
:10194E0035000400050006000700080009000A0023
:10195E000B000C000D000E000F0010001100120005
:10196E0013001400150016001700180019001A00B5
:10197E001B001C001D002F203120302035204C0074
:10198E003A003B003C003D003E003F00400041005D
:10199E0042004300440045004500F102F802F120E8
:1019AE00F820F104F804F140F840F101F801F110CB
:1019BE00F81054005500560057006300580062009E
:1019CE0059005A005B005C005D005E005F00600025
:1019DE00610049004C004A004D004B004E00520081
:1019EE00510050004F00000049004C004A004D00CD
:1019FE004B004E005200510050004F0000005300AB
:101A0E00390047002C001E201F20344021202220A8
:101A1E0023202420252026203520350038002E00B6
:101A2E0037002D0027001E001F002000210022007D
:101A3E0023002400250026003720382064002720AC
:101A4E0064202D2014400920362019201C20072048
:101A5E0014201A20122015201D200D200F200E20DC
:101A6E000C20172013202F20182010200B200420CC
:101A7E000620302031203320112025402D402640D5
:101A8E0020202E2031400900360019001C000700CE
:101A9E0014001A00120016001D000D000F000E009B
:101AAE000C00170013002F00180010000B0004008C
:101ABE0006003000310033001100244064402740FE
:101ACE0030404C002C001E203500204021402220AA
:101ADE0023201F20252026202D00212031002E001E
:101AEE003800242027001E001F00200021002200A5
:101AFE0023002400250026003820312035402720E1
:101B0E001E402D201440042005200620072008200A
:101B1E0009200A200B200C200D200E200F20102053
:101B2E001120122013201420152016201720182003
:101B3E0019201A201B201C201D2025402D40264038
:101B4E0020202E203140040005000600070008006A
:101B5E0009000A000B0034000D000E000F001000EB
:101B6E0011001200130014001500160017001800C3
:101B7E0019001A001B001C001D0024402E40274097
:101B8E0030404C002C001E201F20204021202220FF
:101B9E002320340025202620302030003600380047
:101BAE003700242027001E001F00200021002200E5
:101BBE00230024002500260037203620640027202D
:101BCE0064202D201F400420052006200720082019
:101BDE0009200A200B200C200D200E200F20102093
:101BEE001120122013201420152016201720182043
:101BFE0019201A201B201C201D202F40354030405C
:101C0E002F2038202F0004000500060007000800D2
:101C1E0009000A000B000C000D000E000F00100052
:101C2E001100120013001400150016001700180002
:101C3E0019001A001B001C001D0034401E403140CC
:101C4E0021404C002C001E201F202020212022206D
:101C5E0023202D00252026202F202F00360038008F
:101C6E003700242027001E001F0020002100220024
:101C7E00230024002500260037203620640027206C
:101C8E0064202D201F400420052006200720082058
:101C9E0009200A200B200C200D200E200F201020D2
:101CAE001120122013201420152016201720182082
:101CBE0019201A201B201C201D20254035002640EF
:101CCE0031203820302004000500060007000800EF
:101CDE0009000A000B000C000D000E000F00100092
:101CEE001100120013001400150016001700180042
:101CFE0019001A001B001C001D002440352027402F
:101D0E0031004C002C0038002000204030003420E0
:101D1E001E00210022002D0032002E201000230074
:101D2E003620372027201E201F2020202120222071
:101D3E0023202420252026203700360064002E0084
:101D4E00642010202740142005200620072008209C
:101D5E0009200A200B200C200D200E200F203320EE
:101D6E0011201220132004201520162017201820D1
:101D7E0019201D201B201C201A20224025402D40FA
:101D8E002640250024401400050006000700080028
:101D9E0009000A000B000C000D000E000F003300AE
:101DAE001100120013000400150016001700180091
:101DBE0019001D001B001C001A00214023402E405C
:101DCE001F404C002C001E201F20320021202220FC
:101DDE0023203220252026203020300036003800E7
:101DEE003700242027001E001F00200021002200A3
:101DFE0023002400250026003720362064002720EB
:101E0E0064202D20144004200520062007200820E1
:101E1E0009200A200B200C200D200E200F20102050
:101E2E001120122013201420152016201720182000
:101E3E0019201A201B201D201C2025402D40264035
:101E4E00350038202E20040005000600070008008B
:101E5E0009000A000B000C000D000E000F00100010
:101E6E0011001200130014001500160017001800C0
:101E7E0019001A001B001D001C002440644027405E
:101E8E0030404C002C001E201F20344021202220E8
:101E9E0023202D002520262030203000360038004B
:101EAE003700242027001E001F00200021002200E2
:101EBE00230024002500260037203620640027202A
:101ECE0064202D2033400420052006200720082002
:101EDE0009200A200B200C200D200E200F20102090
:101EEE001120122013201420152016201720182040
:101EFE0019201A201B201C201D202F403500304099
:101F0E002E203820000004000500060007000800FF
:101F1E0009000A000B000C000D000E000F0010004F
:101F2E0011001200130014001500160017001800FF
:101F3E0019001A001B001C001D00000035200000B7
:101F4E0000004C002C001E201F20310021202220DA
:101F5E00242034002620272025202E2036002D0078
:101F6E003700380027001E001F002000210022002D
:101F7E0023002400250026003320330036202E00B7
:101F8E003720382034200420052006200720082082
:101F9E0009200A200B200C200D200E200F201020CF
:101FAE00112012201320142015201620172018207F
:101FBE0019201A201B201C201D202F006400300029
:101FCE0023202D2035000400050006000700080020
:101FDE0009000A000B000C000D000E000F0010008F
:101FEE00110012001300140015001600170018003F
:101FFE0019001A001B001C001D002F206420302029
:10200E0031204C002C00342033201B4033402D2037
:10201E00064031203020300038401E003600380097
:10202E0037002F2027201E201F2020202120222095
:10203E0023202420252026203720350036402D0051
:10204E00374036201940042005200620072008209E
:10205E0009200A200B200C200D200E200F2010200E
:10206E0011201220132014201520162017201820BE
:10207E0019201A201B201D201C20094014400A4044
:10208E002040382024400400050006000700080008
:10209E0009000A000B000C000D000E000F001000CE
:1020AE00110012001300140015001600170018007E
:1020BE0019001A001B001D001C0005401A4011409B
:1020CE001E404C002C001E201F20202021202220EC
:1020DE0023202420252026203420332036002D00D6
:1020EE003700380027001E001F00200021002200AC
:1020FE0023002400250026003400330036202D2036
:10210E00372038202F000420052006200720082025
:10211E0009200A200B200C200D200E200F2010204D
:10212E0011201220132014201520162017201820FD
:10213E0019201A201B201C201D2030008700310082
:10214E002E0087202F20040005000600070008003F
:10215E0009000A000B000C000D000E000F0010000D
:10216E0011001200130014001500160017001800BD
:10217E0019001A001B001C001D0030208920312080
:10218E002E204C00FF188EFF1AD2FF1B92FF1C52FE
:10219E00FF1D12FF1DD2FF1E92FF1F52FF2012FFC6
:0221AE0020D23D
:10440700500173E20100E10100270170220101233D
:10441700010225010831011030045F6E7D8C2A04EA
:104427005F6E7D8C3F0512EC6FA1463A06D521EBF6
:104437002C5A4039011F3E03F6375D3B030BDF0261
:104447003C01013D01262601CF240132210101FF54
:104457000A6D679C46F6375D4521EFAC5A50E10B74
:02446700DF0272
:0928A90007080000005F6E7D8C41
:104E4D009081B6EDF0C2D1C2B412493D9081B6E069
:094E5D00FF12493DC2D1D2B4227A
:0B4637009081BCEBF0A3EAF0A3E9F0D7
:10464200C2D1C2B412493DE49081C0F09081BFE072
:10465200FFA3E0C39F501F9081BCE0FBA3E475F071
:1046620001122AAEA9F0FA1229C9FF12493D90811E
:0A467200C0E004F080D6C2D1D2B43B
:01467C00221B
:104B89009081BEEBF0A3EAF0A3E9F0C2D1C2B4125E
:104B9900493DE4FF12493D9081BEE0FBA3E0FAA341
:0B4BA900E0F9EF122A0FC2D1D2B422B3
:0B4562009081BFEBF0A3EAF0A3E9F0AA
:10456D00C2D1C2B412493DE49081C3F09081C2E042
:10457D00FFA3E0C39F5021E4FF12493D9081BFE0AE
:10458D00FBA3E475F001122AAEA9F0FAEF122A0F7F
:0C459D009081C3E004F080D4C2D1D2B4FD
:0145A90022EF
:07512E00E4FD7FE1024E4D9C
:07513500E4FD7FE2024E4D94
:104F8100EDD3941040027D109081BFEDF07FA0021F
:024F91004637A1
:104AA7009081AAE0FBA3E0FAA3E0F9A3E09081BA22
:034AB700F0E4FF29
:104ABA009081BAE0D3941040037410F0EF44A8FF39
:0B4ACA009081BAE09081BFF0024637F7
:0E4469009081B6EBF0A3EAF0A3E9F0A3EDF02A
:104477007B017A8179BD7F60124B899081BDE0FF16
:1044870060229081B9E0D39F4002EFF09081B6E0BF
:10449700FBA3E0FAA3E0F9A3E09081C2F07F6112E9
:1044A70045628005E49081B9F09081B9E0FFA3E00F
:0B44B700FBA3E0FAA3E0F9EF022A0FDC
:104B3100908188EBF0A3EAF0A3E9F09081BF7404BF
:104B4100F07F30124637908188E0FBA3E0FAA3E0C2
:0C4B5100F99081BF7404F07F2A024637FF
:0950E300EF547FFD7F25024E4DC4
:07513C00E4FD7FFD024E4D72
:07514300E4FD7FFC024E4D6C
:0A50B1001251437D7F7F20024E4D17
:0A50BB001251437DFF7F20024E4D8D
:0A50C5001251437D7D7F20024E4D05
:08510E001250B17F02024E7F36
:104EC8001251437DCE7F20124E4D12512E7FFA1281
:074ED8004EDF7F82024EDF76
:104F93001251437DBF7F20124E4D1251357F0202C5
:024FA3004E7F3F
:0851160012513C7F02024E7FA2
:08511E0012513C7F02024E7F9A
:0950EC00EF5470FD7F27024E4DC8
:104F5B007B017A8179B67F07124B899081B6E05439
:024F6B0070FFD5
:014F6D002221
:104DE4001251437D5A7F53124E4D7F05124E7F7DE3
:0B4DF400A57F53124E4D7F14024E7F2E
:103836009081847444F0A37407F0E4A3F0124DE47D
:10384600908186E0FF04F0908184E0FCA3E0FD2FE8
:10385600F582E43CF583E493908182F0E0FFF47016
:103866000302391B908186E0FE04F0ED2EF582E41A
:103876003CF583E493908183F0E0640160239081BA
:1038860086E0FD908185E02DFD908184E03400FA8C
:10389600A9057BFF908183E09081BFF012463780B7
:0138A60066BB
:1038A700908182E0FF908186E0FE908184E0FCA316
:1038B700E02EF582E43CF583E493FD124E4D9081B2
:1038C70082E054DF908187F0E0FFC39407400FEF59
:1038D7006411600AEF641C6005EF641D70287B01AA
:1038E7007A817987124B89908186E0FF908184E005
:1038F700FCA3E02FF582E43CF583E493FF908187F6
:06390700E06F6002C32224
:10390D00908183E0FF908186E02FF00238467F01A1
:10391D00124E7F7808E6FF1250E37B007A00790B98
:04392D00124B31D335
:013931002273
:0F3932009081A7EFF09081A9EBF09081A8EDF0C4
:10394100C206600312510E1250BB7F32124EDF903D
:1039510081A7E0701C124EC89081AAE0FBA3E0FA97
:10396100A3E0F9A3E0FD124F8112513512511680E7
:103971000F124F9312512E124AA7124AA712511E2B
:10398100E4780FF69081A9E0FF780FE6C39F5077A6
:05399100D2D120FBEF84
:10399600124F5B9081B5EFF060E59081A7E0700B68
:1039A6009081B5E030E54DD20680119081B5E030CA
:1039B600E6421251437F03124E7FD2069081B1E058
:1039C600FDA3E0F9A3E0FAA3E09081BAC9F0A3EA67
:1039D600F0A3E9F09081AEE0FBA3E0FAA3E0F912D0
:1039E60044699081B2E0FBA3E0FAA3E0F91229C989
:1039F6007002C20612513512512E9081B5E0FF12A7
:023A060050EC82
:103A08001250BB7F0A124EDF1250B17F0A124EDFEE
:0B3A18009081A8E060031250C5A206D8
:013A23002280
:053EC100908A02EFF001
:103EC600124F0B1251437D8E7F20124E4D7FC8122A
:103ED6004E7F908A02E0FD7F25124E4D7D3F7F2664
:103EE600124E4D7BFF7A4479579081BF7405F07F5F
:103EF6003F1246377BFF7A44795F9081BF7406F0A4
:103F06007F3A1246377BFF7A4479659081BF740108
:103F1600F07F391246377BFF7A44795C9081BF7413
:103F260003F07F3E1246377BFF7A4479669081BF65
:103F36007403F07F3B1246377FFA124EDF124FB6FC
:023F460080FBFE
:03180000023B6345
:103B6300787FE4F6D8FD9080007F007E10E4F0A318
:0A3B7300DFFCDEFA7581A7023BB803
:1028B2004181E3004181E5004781DB00C201000064
:0628C20000084181E60060
:0B505A009081E4E04402F0439010223B
:0B5065009081E4E04408F0439020221A
:0B5070009081E4E04404F0439810221B
:0B507B009081E4E04410F043982022F4
:0B5086009081E4E04401F075881F22D7
:07514A00E4F58975880622D7
:064E98007B007A00796046
:104E9E00E4FFEFC39D500A740129F9E43AFA0F803A
:014EAE00F112
:014EAF0022E0
:103A24009081C6EBF0A3EAF0A3E9F0A3ECF0A3EDD8
:013A3400F0A1
:103A35009081C9E0FEA3E0FF4E7003023AC0908179
:103A4500C6E0FBA3E0FAA3E0F9EA494B606DD3EFCA
:103A55009440EE940040047F4080069081C9A3E025
:103A6500FF9081CBEFF0E0FFFDC39081CAE09DF0B0
:103A75009081C9E09400F07E0078607C007D009024
:103A850081C6E0FBA3E0FAA3E0F91229A39081CB5C
:103A9500E0FFFD9081C7E48DF0122A988F89758823
:103AA500017B007A0079609081CBE0FD124E9E206B
:103AB5008F04308CFA22C28F023A35E4F589758875
:013AC5000AF6
:013AC60022DD
:0E4FD7008F89758801308FFDC28F75880A2280
:0950F500758802308FFDC28F2284
:05474D009081ABEDF0CE
:10475200E4A3F0A3F0D2D1EDFF7E0078007C807D4F
:10476200011229A39081ABE0F59175900120961C6E
:10477200309404C29480159081ACE475F001122A41
:0E47820098FED3E5F09410EE942740E1C29625
:014790002206
:054791009089F7EDF036
:10479600E4A3F0A3F0D2D1EDFF7E0078807C807D8B
:1047A600011229A39089F7E0F599759801209E1CBE
:1047B600309C04C29C80159089F8E475F001122A99
:0E47C60098FED3E5F09410EE942740E1C29ED9
:0147D40022C2
:03181600C2A72244
:103AC7007860E6FF30E7739081E3E0FE7003023B26
:103AD7005FEF541F600D24FE601C04707BEEB40181
:103AE7000280759081E4E030E60678607602805DBA
:103AF700E47860F680577864E6247F601A146033B0
:103B0700248270529081E4E030E006E47860F68029
:103B1700047860760180369081E3E0B40102803852
:103B27009081E4E030E106786076018004E4786013
:103B3700F6801A9081E3E0B40102801C9081E4E0F2
:103B470030E206786076018004E47860F6E4786114
:0C3B5700F67F02024FD780001250862239
:10403F009081E3E064026002806B7860E6FD6402C9
:10404F0070567862E6700D08E6FE70087867E670C5
:10405F0003EE6002804F7864E614602214602B2414
:10406F0080600F0470309081E4E054FDF05390EFC6
:10407F0080309081E4E054FBF05398EF80249081DE
:10408F00E4E054F7F05390DF80189081E4E054EFB0
:10409F00F05398DF800C800DED700A9081E4E054AE
:0940AF00BFF002514A12508622B2
:104278009081E3E06402705B7860E6FD7018796213
:10428800E77866460846786346640170469081E49C
:10429800E04440F0803AED640270387862E67033AA
:1042A8007866E6702E08E6702A7863E670257864EA
:1042B800E614600F1460162480600D047015125007
:1042C8005A800D1250658008125070800312507B7E
:0642D80002514A1250865B
:0142DE0022BD
:104A14007864E6701308E6700F08E6700B08E67019
:104A2400079081E3E0B402031250867862E6FF60E7
:104A3400089081E37401F08005E49081E3F08F8AAB
:034A440002514AD2
:104129007867E6FF9081C4E4F0A3EFF0E0F8E4F0EB
:10413900E89081C4F07866E6FFA3E02FF09081C48F
:10414900E03400F09081E5E070227BFF7A2C79F869
:104159009081C4E0FEA3E0FFD39412EE94004006E0
:104169007C007D128026AC06AD0780207BFF7A2D6E
:10417900793E9081C4E0FEA3E0FFD39412EE94004F
:0F41890040067C007D128004AC06AD07123A247C
:014198002204
:103BFD007867E6FF9081C4E4F0A3EFF0E0F8E4F01D
:103C0D00E89081C4F07866E6FFA3E02FF09081C4C0
:103C1D00E03400F09081E5E070327BFF7A2D790A77
:103C2D00902D0C93FFD39081C5E09F9081C4E094BB
:103C3D0000400C902D0CE4937E007C00FD803E90A6
:103C4D0081C4E0FEA3E0FFAC06FD80317BFF7A2D41
:103C5D007950902D52E493FFD39081C5E09F9081D0
:103C6D00C4E09400400C902D52E4937E007C00FD46
:103C7D00800B9081C4E0FEA3E0FFAC06FD123A2458
:013C8D002214
:1035EC007867E6FF9081C4E4F0A3EFF0E0F8E4F034
:1035FC00E89081C4F07866E6FFA3E02FF09081C4D8
:10360C00E03400F07862E6146048146070147003C3
:10361C000236B31470030236DD147003023707242C
:10362C000560030237327BFF7A2C7962902C62E4BE
:10363C0093FF9081C4E0FCA3E0FDC39FEC94005089
:10364C000302372F902C62E493FF7E007C00FD0276
:10365C00372F7BFF7A2C7966902C66E493FF908150
:10366C00C4E0FCA3E0FDC39FEC94005002800B90DF
:10367C002C66E493FF7E007C00FD02372F7BFF7AE3
:10368C002C7986902C86E493FF9081C4E0FCA3E017
:10369C00FDC39FEC94005002800B902C86E493FFAA
:1036AC007E007C00FD807C7BFF7A2C79DE902CDE0A
:1036BC00E493FF9081C4E0FCA3E0FDC39FEC940075
:1036CC005002800B902CDEE493FF7E007C00FD808A
:1036DC00527BFF7A2C79A6902CA6E493FF9081C4A0
:1036EC00E0FCA3E0FDC39FEC94005002800B902CF7
:1036FC00A6E493FF7E007C00FD80287BFF7A2C796A
:10370C00C0902CC0E493FF9081C4E0FCA3E0FDC307
:10371C009FEC94005002800B902CC0E493FF7E0031
:06372C007C00FD123A24AE
:013732002274
:104199007867E6FF9081C4E4F0A3EFF0E0F8E4F07B
:1041A900E89081C4F07866E6FFA3E02FF09081C41F
:1041B900E03400F07864E614602204703F124FE5A1
:1041C9009081C4E0FEA3E0FFD39409EE9400400679
:1041D9007C007D098023AC06AD07801D124FF3904A
:1041E90081C4E0FEA3E0FFD39409EE940040067C6D
:0F41F900007D098004AC06AD07023A24125086FF
:014208002293
:104CA9007864E614600D0470177BFF7A2B79437DD5
:104CB9003F80087BFF7A2C792D7D357C00023A24D0
:044CC90012508622DD
:03181E00025086EF
:10467D007866E66401701B08E670177865E67012BF
:10468D0018E6700E18E6700A18E670069081E3E0E1
:10469D0070031250869081E3E0FFB40106E4786068
:1046AD00F6800DEFB4020678607601800302508625
:0646BD007F01124FD7221D
:1049E0007867E6702B7865E670267863E67021902C
:1049F00081E3E0700280197862E6FF70069081E33F
:104A0000048009EFB401099081E37402F002514A75
:044A10001250862298
:104BB4007866E6B4010E7862E6700908E670057856
:104BC40067E660031250869081E3E064026003129A
:0B4BD4005086E47860F67F01024FD7A6
:104C59007866E6701208E6700E7862E6700908E672
:104C690070057865E660031250869081E3E064027E
:084C7900600312508602514A4B
:03182600024DACC4
:0C502A009081E2E07860F67F01024FD731
:104D34007866E6640160031250869081E4E030E511
:104D440006E47860F68004786076017F01024FD72C
:1042DF007867E6FF9081C5E4F0A3EFF0E0F8E4F033
:1042EF00E89081C5F07866E6FFA3E02FF09081C5D6
:1042FF00E03400F0E4908201F01250F59081C4E5B3
:10430F0089F07B007A007960E0FD124E9EE0FF6439
:10431F0001601D1242099081C4E0FFC39081C6E085
:10432F009FFF9081C5E09400FEF0A3EFF04E70C99F
:03433F0012514ACE
:014342002258
:0A50CF007863E69081E2F002514A96
:104F6E009081E4E054DFF07862E67004E04420F0D3
:034F7E0002514A93
:104D1300758802308FFDC28FAD89124E9878DB7C87
:104D2300817D017A0079607E007F071229A30251F9
:014D33004A35
:104EB00078607C007D007B017A8179DB7E007F0752
:084EC0001229A37F07024FD75E
:0A50D9007862E69081E6F002514A89
:104DC8009081E4E030E714D2D14380027F0A124E8A
:0C4DD8007F5380FD9081E4E0547FF022C6
:104C81007863E624FE601114601124E26010146060
:104C9100102421700F024129023BFD0235EC024133
:084CA10099024CA91250862271
:085126007D08124E98C28F2291
:0B509100D2D175800CC2D153AAFC22C2
:104FC700D2D175800DC2D143AA039081E5EFF022BB
:03188B00023451D3
:10345100C0E0C0F0C083C082C0D075D000C000C041
:0D34610001C002C003C004C005C006C007C2
:10346E00A2D19207D2D1E58030E73E53807F908182
:10347E00E3E4F0A3F0F58A758802F58975900C7572
:10348E00980C75A00CF591F599F5A19081E6F09048
:10349E0081DBF0A374C2F0A37401F0A3E4F0A3F0F7
:1034AE00A3F0A37408F00235CDE58030E616538004
:1034BE00BF9081E3E0640260030235CDA3E0448057
:1034CE00F00235CDE58030E50D5380DF9081E4E0EC
:1034DE00547FF00235CD208F030235C71251267866
:1034EE0060E65460706B08E6B40C005075903502BF
:1034FE00F828287302352602352C02355D02353246
:10350E0002355D02353802353E0235440235490238
:10351E00354E023553023558123AC70235C712409E
:10352E003F0235C71242780235C7124A140235C718
:10353E00124C810235C712181E807E12467D80798C
:10354E001249E08074124BB4806F124C59806A801D
:10355E00657860E6FF5460FEBE2007EF541F6401DD
:10356E00600280527861E6122AC4359701359C02BA
:10357E0035A10335A60935AB0A35B00B35BA203562
:10358E00B52135BF22000035C4121826802B1250EB
:10359E002A8026124D3480211242DF801C1250CF19
:1035AE008017124F6E8012124EB0800D124D138086
:1035BE00081250D9800312508630A703121816A293
:0335CE000792D190
:1035D100D007D006D005D004D003D002D001D0004E
:0B35E100D0D0D082D083D0F0D0E032F8
:1048CB009081B2EFF0A3EDF0D2D17E007F087D0096
:1048DB007B017A807900122B179081B2E0908000D7
:1048EB00F09081B3E0908002F075910875900120F3
:0A48FB0096053094FAC294C296228A
:102B430005010906A101050719E029E7150025017B
:102B5300750195088102950175088103950675082D
:102B63001500258F05071900298F8100950575012B
:102B73000508190129059102950175039103C00503
:102B8300010902A10185010901A100050919012912
:102B930005150025019505750181029501750381D0
:102BA3000305010930093109381580257F7508951A
:102BB300038106C0C0050C0901A10185021500258A
:102BC30001050C09B509B609B709CD09B309B4095B
:102BD300B809B975019508810209E209E909EA0909
:102BE300B20A2A020A2B020A83010A92017501958D
:102BF3000881020A23020A24020A25020A26020A7B
:102C030027020A8A010A96010A940175019508812F
:102C130002050115002501098109820983950375C0
:102C2300018106950175058103C006A0FF0901A175
:102C3300018501090826FF001500750895FFB102FB
:102C43008502090826FF001500750895FFB1028566
:102C530003090826FF001500750895FFB102C0049B
:102C6300030904200342004100520043004F004483
:102C730000450020005300430041004E004E004534
:102C8300005200200342004100520043004F004421
:102C930000450020005300430041004E004E004514
:102CA3000052001A0355005300420020004B0065F8
:102CB30000790062006F006100720064001E03551A
:102CC30000530042002000560045004E00440045DA
:102CD30000520020004800490044001A0353004EEC
:102CE3000032003000310037003000360056004516
:102CF30000520031001201100100000040FFFF35B7
:102D03000001000102030109023400020100A06472
:102D1300090400000103010104092110010001223B
:102D23003F0007058103400001090401000003007F
:102D330000050921100100012235001201100102D2
:102D43000000404A29000101000102030109024376
:102D530000020100A0640904000001020201000551
:102D630024001001052401010104240202052406A4
:102D730000010705810340000A09040100020A005B
:102D8300000007058202400000070503024000001F
:0D4FE5007BFF7A2D790A741229F9E43AFA5B
:014FF200229C
:0D4FF3007BFF7A2D790A742B29F9E43AFA34
:01500000228D
:0B509C00C2D1758403E4F585F597226E
:0A28C800C108418A0100418A0000A6
:0B46C300908181EFF0A3ECF0A3EDF07C
:1046CE00C2D1E4A3F0908181E0FF908184E0C39F8A
:1046DE005027D290908182A3E0FF124E7FC290901D
:1046EE008181E064016007A3A3E0FF124E7F124FA9
:0946FE00B6908184E004F080CC48
:01470700228F
:0C503600300808300805124FB680F82240
:10182E00300819908A00E004F0A3E0FF908A00E0EF
:0C183E00D39F4008C208E4F0C2D1C29061
:01184A00227B
:0C504200D208908A01EFF0C2D1D2902277
:10185E00C2D175E3FF7593FF75A3FF75B3FF43B157
:10186E0010D2B443B120C2B5D2D175FB3F43F901BA
:0D187E0043FA0243FA0843F92043FA10220E
:104D7200D2D17C007D30122AEAEF24FFFFEE34FF0D
:0C4D8200F5E58FE475E101E4F5E2F5E3EE
:014D8E002202
:104D8F00D2D17C007D30122AEAEF24FFFFEE34FFF0
:0C4D9F00F5F58FF475F101E4F5F2F5F381
:014DAB0022E5
:044DFF00AB07AA064E
:104E0300EA540FF9AF03D2D175E888AE01EDC4546B
:064E1300F04EF5E98FEA04
:014E19002276
:104F3400A2D19209D2D18FEBD2EA30ECFDC2ECA21D
:034F44000992D1FE
:014F47002247
:1047D5009089E9EBF0A3EAF0A3E9F0A3ECF0A3EDEF
:0147E500F0E3
:1047E600E4FDFCD39089EDE09D9089ECE09C401DB2
:1047F6009089E9E0FBA3E0FAA3E0F98D828C8312AD
:0D48060029E2FF124F340DBD00010C80D6D9
:014813002282
:0D501D00D2D1EF70038D9622AF058FA62231
:0C504E00D2D1EF7003F59522E4F5A52205
:104FA500ED4420FED2D1EF70038E9522AF068FA57A
:014FB50022D9
:104BDF00D2D1EF70118D97439510E59530E7FB53C8
:104BEF00956FAE978011AF058FA743A510E5A53040
:094BFF00E7FB53A56FAEA7AF065A
:014C08002289
:104E6600EE54FED2D1F5DFE4F5DE75DC7775DC3B7A
:084E7600E5DC30E7FB53DC7FB3
:014E7E002211
:104708009081EEEEF0A3EFF0E4FFFED39081EDE0B0
:104718009F9081ECE09E402C9081EEE0FCA3E0F5B8
:10472800828C83E493122A0F740129F9E43AFA90EF
:1047380081EFE004F070069081EEE004F00FBF0016
:04474800010E80C717
:01474C00224A
:103F48009081F2EBF0A3EAF0A3E9F09081F0EEF0B3
:033F5800A3EFF0E4
:103F5B00EE54FE9081F0F0A3E4F0D2D1FDFCC3EC63
:103F6B00940250569081F0E0FAA3E0FBEAF5DF8B68
:103F7B00DE9081F6E09D9081F5E09C40179081F2F8
:103F8B00E0FBA3E475F001122AAEA9F0FA1229C9DD
:103F9B00F5DD800375DDFF75DC5D75DC74E5DC300C
:103FAB00E7FB53DC7F0DBD00010C9081F1E004F0C9
:0A3FBB0070AC9081F0E004F080A4E7
:013FC50022D9
:083C8E00908185EEF0A3EFF038
:103C9600D2D1E4FDFCD390818BE09D90818AE09C9B
:103CA6004073908185E0F5DFA3E0F5DE1229C9F5C2
:103CB600DD75DC5D75DC74E5DC30E7FB53DC7F909D
:103CC6008185E0F5DFA3E0F5DE1229C9F5DD75DCB7
:103CD6005D75DC74E5DC30E7FB53DC7F908185E0C5
:103CE600F5DFA3E0F5DE1229C9F5DD75DC5D75DCCF
:103CF60074E5DC30E7FB53DC7F740129F9E43AFA1A
:103D06000DBD00010C908186E004F07088908185DD
:053D1600E004F08080D4
:013D1B002285
:104E1A00D2D17585FA7586F77585FAEFC454F044D0
:0A4E2A0009F5847585FAE4F5852288
:104FB600A2D19206D2D17585FAE4F585A20692D1E0
:014FC60022C8
:104F0B00C2D143B110D2B443B120C2B5D2D143F90F
:054F1B002043FA102202
:10493D00E4FDD2D1EF30E704D2FD8002C2FDEF25B8
:10494D00E0FF0000C2D1D2B5EE25E0FED2D130FCA1
:10495D00054401FE8004EE54FEFE0000C2D1C2B536
:07496D000DEDB408CDAF060B
:014974002220
:104EDF0000000000000000000000000000000000C3
:074EEF0000000000DFEA22D1
:104E7F00AE077FFA124EDF7FFA124EDF7FFA124E25
:094E8F00DF7FF8124EDFDEEA229B
:104AD50012509C1250917F0A124E7F12185E7F0A67
:104AE500124EDF7F05124E1A7FE87E03124D7212B9
:0E4AF5004F0BE4FD7FC37E09124DFF02500FF0
:0B48520090819FEBF0A3EAF0A3E9F0D7
:10485D007F40D2D1E4FEE4F5DFAD070F8DDE75DCD0
:10486D007475DC1690819FE0FBA3E475F001122AAC
:10487D00AEA9F0FAE5DD122A0F53DC7F0EEEB40877
:01488D00D555
:01488E002207
:0E4975009089F3EBF0A3EAF0A3E9F0A3EDF0D4
:10498300E4FFFE9089F6E0FDEFC39D50189089F394
:10499300E0FBA3E0FAA3E0F98F827583001229E21A
:0749A3006EFE0F80DEAF067F
:0149AA0022EA
:0D5001001249759089F2E0B50702D322C371
:01500E00227F
:0B4B03009089FAEBF0A3EAF0A3E9F0C0
:104B0E00E4FFEFC39D501A9089FAE0FBA3E0FAA3ED
:104B1E00E0F98F827583001229E26002C3220F80B2
:024B2E00E1D3D1
:014B30002262
:0B4B5D009089FDEBF0A3EAF0A3E9F063
:104B6800E4FFFEEEC39D50189089FDE0FBA3E0FA38
:104B7800A3E0F98E827583001229E22FFF0E80E3ED
:014B8800220A
:0E3E35009081F7EBF0A3EAF0A3E9F0A3EDF023
:103E430074FF9081FCF0A3F0E49081FBF09081FA81
:103E5300E0FFA3E0FEC39F505C9081F7E0FBA3E08B
:103E6300FAA3E0F98E827583001229E2FE9081FCA9
:103E7300E06EF0A3E0F0E4FD9081FCE0FEA3E0FF40
:103E8300EE30E717EF25E0FFEE336410FEEF642119
:103E9300FF9081FCEEF0A3EFF0800D9081FDE02513
:103EA300E0F09081FCE033F00DEDB408CB9081FBA2
:0D3EB300E004F080989081FCE0FEA3E0FFA9
:013EC00022DF
:0E500F00C2D175A810E4F5A975AA03F5AB226D
:103B7D00024343E493A3F8E493A34003F68001F2D8
:103B8D0008DFF48029E493A3F85407240CC8C33349
:103B9D00C4540F4420C8834004F456800146F6DF18
:103BAD00E4800B01020408102040809021B0E47ED7
:103BBD00019360BCA3FF543F30E509541FFEE4930D
:103BCD00A360010ECF54C025E060A840B8E493A3D4
:103BDD00FAE493A3F8E493A3C8C582C8CAC583CAFF
:103BED00F0A3C8C582C8CAC583CADFE9DEE780BEB7
:0128D2000005
:1028D300E709F608DFFA8046E709F208DFFA803EE7
:1028E30088828C83E709F0A3DFFA8032E309F608D4
:1028F300DFFA8078E309F208DFFA807088828C833C
:10290300E309F0A3DFFA806489828A83E0A3F608EF
:10291300DFFA805889828A83E0A3F208DFFA804CC9
:1029230080D280FA80C680D4806980F280338010A0
:1029330080A680EA809A80A880DA80E280CA803309
:1029430089828A83ECFAE493A3C8C582C8CCC58381
:10295300CCF0A3C8C582C8CCC583CCDFE9DEE78051
:102963000D89828A83E493A3F608DFF9ECFAA9F0D0
:10297300EDFB2289828A83ECFAE0A3C8C582C8CC26
:10298300C583CCF0A3C8C582C8CCC583CCDFEADE3F
:10299300E880DB89828A83E493A3F208DFF980CCA1
:1029A30088F0EF60010E4E60C388F0ED2402B4049A
:1029B3000050B9F582EB2402B4040050AF23234541
:0629C3008223902923731A
:1029C900BB010689828A83E0225002E722BBFE020C
:0929D900E32289828A83E493223F
:1029E200BB010CE58229F582E5833AF583E02250AA
:1029F20006E92582F8E622BBFE06E92582F8E222F4
:0D2A0200E58229F582E5833AF583E493220D
:102A0F00BB010689828A83F0225002F722BBFE01A6
:022A1F00F322A0
:102A2100F8BB010DE58229F582E5833AF583E8F0EB
:102A3100225006E92582C8F622BBFE05E92582C897
:022A4100F2227F
:102A4300BC000BBE0029EF8DF084FFADF022E4CC77
:102A5300F875F008EF2FFFEE33FEEC33FCEE9DEC40
:102A6300984005FCEE9DFE0FD5F0E9E4CEFD22ED86
:102A7300F8F5F0EE8420D21CFEADF075F008EF2FD0
:102A8300FFED33FD4007985006D5F0F222C398FDC1
:052A93000FD5F0EA225E
:102A9800C5F0F8A3E028F0C5F0F8E58215827002C9
:062AA8001583E038F02266
:102AAE00A3F8E0C5F025F0F0E582158270021583DB
:062ABE00E0C838F0E82238
:102AC400D083D082F8E4937012740193700DA3A3A1
:102AD40093F8740193F5828883E4737402936860B5
:062AE400EFA3A3A380DFB5
:102AEA00EC8EF0A4CCC5F0CCCDF8EFA4CEC5F02D79
:102AFA00FDE43CFCE8A42EC8C5F03DFDE43CFCEF37
:0D2B0A00A4FFE5F028FEE43DFDE43CFC22C4
:102B1700EF4E6012EF60010EEDBB010B89828A83D5
:102B2700F0A3DFFCDEFA2289F05007F709DFFCA9E2
:0C2B3700F022BBFEFCF309DFFCA9F02239
:00000001FF
