:1021B000604089A93031323334353637383961627D
:1021C000636465666768696A6B6C6D6E6F70717267
:1021D000737475767778797A414243444546474827
:1021E000494A4B4C4D4E4F505152535455565758E7
:0421F000595A0D002B
:10437D00124B6490831D7403F09083217410F090A0
:10438D0081E4E0FF12503DD2AF12464550097D64E5
:10439D007C007F0212471712502C90831DE024FEE3
:1043AD00601214601A24FE601E240470EA7F01124C
:1043BD0028D380E312455D90831D7401F080D89061
:1043CD00831D7402F080D012486890831D7401F033
:0243DD0080C599
:085174005F6E7D8CAABBCCDD4F
:1021F400448315AA000055664A83190000000000B4
:1022040000000000000000000000000000000000CA
:1022140000000000000000000000000000000000BA
:1022240000000000000000000000000000000000AA
:10223400000000000000000000000000000000009A
:1028440000000000005083050000000000000000AC
:0828540000000000000000007C
:0E45B10090819AEBF0A3EAF0A3E9F0A3EDF0FD
:1045BF00E4FE90819DE0FD14F0ED602F90819AE074
:1045CF00FBA3E475F001122D2AA9F0FA122C456E07
:1045DF00FE7F08EFD3940040D9EE30E70725E06463
:0D45EF0031FE8004EE25E0FE1F80E8AF06DF
:0145FC00229C
:0B44A300908194EBF0A3EAF0A3E9F095
:1044AE00A3EBF0A3EAF0A3E9F0ED64046002C322EB
:1044BE00908197E0FBA3E0FAA3E0F9122C45B4FE3D
:1044CE000A900001122C5E64EF6002C32290819468
:1044DE00E0FBA3E0FAA3E0F9ED14FD1245B19081E3
:1044EE0097E0FBA3E0FAA3E0F9900003122C5E6FB5
:0544FE006002C322D39F
:014503002295
:1048E300908194EBF0A3EAF0A3E9F0A3ECF0A3ED3D
:0148F300F0D4
:1048F40014FD1245B1908194E0FBA3E0FAA3E0F922
:10490400908198E024FFFD908197E034FF8D82F53B
:0A49140083122C5EB50702D322C304
:01491E002276
:10491F00908316EFF0E4908319F0A3F090819E74CA
:10492F0004F0A37401F0A37481F0A37494F0A37442
:10493F0010F0A37401F0A37481F0A37498F07B01BD
:0B494F007A8379157D507F01023DD86E
:104FBE00D390831AE09458908319E094024002D360
:034FCE0022C322D9
:10325B009081CBEBF0A3EAF0A3E9F09081CBE0FBFC
:10326B00A3E0FAA3E0F9900001122C5E541FFE902C
:10327B008321E06E700302347F90831B7403F0A3F1
:09328B0074E8F0EF7003023468EE
:10329400122C45FF7E0024FFF582EE34FFF58312E5
:1032A4002C5E9081CEF074FE2FF582EE34FFF58310
:1032B400122C5E9081CFF0E92404F9E43AFAC002BA
:1032C400C0019081CBA3E0FAA3E0F9122C4524FAC3
:1032D400FDD001D002123E649081D0EEF0A3EFF055
:1032E4009081D0E0FCA3E0FDECFF9081CFE0FBEF08
:1032F4006B7001E4600302347FAF059081CEE0FD82
:0A330400EF6D7001E4600302347FF6
:10330E009081CBE0FBA3E0FAA3E0F9900001122C30
:10331E005EC4135407FF90831FF0900003122C5EBF
:0A332E009081D2F0EF700302342DFD
:10333800E49081D7F09081CBA3A3900002122C5E79
:103348009081D9F075F064849081D8F06017E024FA
:1033580030FF9081D7E0FE04F074D32EF582E43478
:1033680081F583EFF09081D9E0FF75F06484E5F092
:1033780075F00A849081D8F09081D7E07004A3E0BA
:10338800601A9081D8E02430FE9081D7E0FD04F0E7
:1033980074D32DF582E43481F583EEF0EF75F00AED
:1033A80084E5F02430FF9081D7E0FE04F074D32E3A
:1033B800F582E43481F583EFF090831FE024FE600A
:1033C8001D146030240270409081D7E0FF04F0742F
:1033D800D32FF582E43481F5837409F0802A908133
:1033E800D7E0FF04F074D32FF582E43481F58374B9
:1033F80020F080149081D7E0FF04F074D32FF58279
:10340800E43481F583742DF012502C7B017A817994
:10341800D39081D7E0FD7C009081D2E0547F9081E9
:053428009EF012300FC0
:10342D0012502C9081CBE0FBA3E0FAA3E02404F929
:10343D00E43AFAC002C0019081CBA3E0FAA3E0F90F
:10344D00122C4524FAFDE434FFFC9081D2E0547F28
:0B345D0090819EF0D001D00212300FD1
:103468009081CBE0FBA3E0FAA3E0F9900001122CD5
:083478005E541F908321F02235
:0B3F7700908185E0FF7B017A837923B5
:103F8200908194EBF0A3EAF0A3E9F090831B740311
:083F9200F0A374E8F0EF606099
:103F9A00908194E0FBA3E0FAA3E0F9900001122CCF
:103FAA005EFF908197E4F0A3EFF0E0F8E4F0E89088
:103FBA008197F0900002122C5EFF908198E02FF01A
:103FCA00908197E03400F012502C908194E0FBA38A
:103FDA00E0FAA3E02406F9E43AFA908198E024F999
:103FEA00FD908197E034FFFCE490819EF012300F3F
:013FFA0022A4
:0528D300908185EFF08B
:1028D800E490818DF0A3F0F9A3C9F0A3F0A3E9F087
:1028E800E4908319F0A3F0908186F012502C908127
:1028F80085E0700B7B017A817988124B068013780A
:10290800887C817D017BFF7A4379DF7E007F04121A
:102918002C1F908186E0601A75F00FA42423F974A7
:102928008335F0FA90818F7401F0A3EAF0A3E9F0FF
:10293800800E90818F7401F0A37483F0A37405F066
:1029480090819E7404F090818FE0F9A3E0FAA3E0EF
:1029580090819FC9F0A3EAF0A3E9F0A37410F0A353
:102968007401F0A37481F0A37487F07B017A8179F4
:10297800887D507F01123DD89204200403022B4C1D
:10298800E4908319F0A3F090818FE0FBA3E0FAA311
:10299800E0F9908187E0FD1244A3502890818FE0F0
:1029A800FBA3E0FAA3E0F9900002122C5EFF9083EB
:1029B80021E06F6003022B4E123F77908321741041
:1029C800F0022B4C90818FE0FBA3E0FAA3E0F91210
:1029D8002C4590818CF0D3946650047F0180027F4F
:1029E8000090818CE0FEC3940140047D0180027D4B
:1029F80000ED5F7003022AD4908186E02401FDE493
:102A080033FCEE6D7001EC6003022AC1A3E024FFE1
:102A1800FFE434FFFEE92401F9E43AFAC003C002F6
:102A280090818FE0FBA3E0FAA3E0F8AC02AD03D0FD
:102A380002D003122C1F908187E0FF24FFFDE434AD
:102A4800FFFC90818EE02DF090818DE03CF090812C
:102A58008CE06401707A90818FE0FBA3E0FAA3E038
:102A68002401F9E43AFAEF24FEFD1245B190818F72
:102A7800E0FBA3E0FAA3E0F9122C456F6003022BF8
:102A88004E900004122C5EFF908321E0B5070912D6
:102A98003F779083217410F0908187E024FFFFE452
:102AA80034FFFE78237C837D0190818FE0FBA3E0D7
:102AB800FAA3E0F9122C1F8017908186E0FF90811D
:102AC8008CE0B507030228F3C2048078C20480743E
:0B2AD800300462908185E06401705AB8
:102AE300908324E0FF908192E4F0A3EFF0E0F8E418
:102AF300F0E8908192F0908325E0FF908193E02F9E
:102B0300F0908192E03400F090818DE0FEA3E0FF2D
:102B1300908192E0FCA3E0FDB5071FECB5061B7B9B
:102B2300017A8379231248E3501F908326E0541FD0
:0A2B3300FF908321F012491F800F6C
:102B3D00908186E004F0E0C3946450030228F3A270
:012B4D000483
:012B4E002264
:10455D0078817C817D017BFF7A5179747E007F04A7
:10456D00122C1F7F19121806124DE37B017A8179E7
:10457D008112180EE4FF1228D3E4FF1228D3E4FFB2
:10458D001228D3780EE62401FFE433FE7C007D195A
:10459D00122CBFAF05121806124DE37B007A00797D
:0445AD000B02180ED7
:1048680078817C817D017BFF7A5179787E007F0495
:10487800122C1F7F007E16124EDC7B017A81798113
:1048880090818AE4F0A37404F07F007E16123CBD88
:0E489800C2D1E4F5A8F5A9F5AAF5AB0200001F
:08517C0000000000000000002B
:10285C00603F896A3031323334353637383961620A
:10286C00636465666768696A6B6C6D6E6F707172B4
:10287C00737475767778797A414243444546474874
:10288C00494A4B4C4D4E4F50515253545556575834
:0D289C00595A004789630000000000000D3C
:104994009081C5EFF07E017F007D007B017A8279F2
:1049A40003122D939082037403F090820B74AAF087
:1049B400E4A3F09081C5E090820DF0240FF582E429
:0849C4003482F58374BBF0227C
:104F6C00D2D17B017A82790390820DE0240DFDE48D
:054F7C0033FC023A5372
:104AD6009081C3EFF0A3EDF07F021249949081C359
:104AE600E090820EF09081C4E0FF90820FF09082F9
:104AF6000EE0FE90820DE06E6F908210F0024F6C19
:104243009081C6EFF0908201E070397866E6F0E481
:10425300A3F09081C6E0FFD394084052EF24F8FF07
:10426300E434FFFE908202E02403F9E43482A801DF
:10427300FC7D017B007A007968122C1F9081C6E0D7
:1042830024F880239081C6E0FF7E00908202E02420
:1042930003F9E43482A801FC7D017B007A00796094
:0F42A300122C1F9081C6E0FF908202E02FF022C4
:104E3B00908206E02460700C90831D7405F07D80D9
:0C4E4B00E4FF80047D8F7F01124AD62214
:054C98009081ABE0FF7C
:104C9D009081B2EFF0601B9081B2E0B401047F010E
:104CAD00800D9081B2E0B402047F0380027F071271
:034CBD004EF5228F
:093762009081ABEDF0AB07AA0663
:10376B007C007D0A122CBF9081B1EDF07C007D0AAC
:10377B00AF03AE02122CBFAA06AB077C007D0A1268
:10378B002CBF9081B0EDF07C007D0AAF03AE02122E
:10379B002CBFAA06AB077C007D0A122CBF9081AF11
:1037AB00EDF07C007D0AAF03AE02122CBFAA06AB74
:1037BB00077C007D0A122CBF9081AEEDF07C007D62
:1037CB000AAF03AE02122CBFAA06AB077C007D0A20
:1037DB00122CBF9081ADEDF0E4FD7F0412495A121B
:1037EB004C98E49081ACF09081ACE0FFC394055011
:1037FB005B74AD2FF582E43481F583E0FF9081ACEF
:10380B00700FE024ADF582E43481F5837462F080AF
:10381B0012E0FEEF2458FF74AD2EF582E43481F5EF
:10382B0083EFF09081ACE024ADF582E43481F58335
:10383B00E0FD7F0412495A124C98E4FD7F041249B3
:10384B005A124C989081ACE004F0809BE4FDFF127F
:0A385B00495A9081ABE0FF024C9D3A
:103D4B009081ABEBF0A3EAF0A3E9F0A3ECF0A3EDC9
:013D5B00F077
:103D5C00643F4C6002C322E49081B0F09081AFE0EC
:103D6C0024FFFF9081AEE034FFFE9081B0E0C39F52
:103D7C00E49E50319081ABE0FBA3E0FAA3E0F99014
:103D8C0081B0E0FFF582758300122C5EFE746A2F01
:103D9C00F582E43489F583E06E6002C3229081B031
:103DAC00E004F080B79081ABE0FBA3E0FAA3E0F96C
:103DBC009081AFE024FFFF9081AEE034FF8F82F55D
:0B3DCC0083122C5E640D6002C322D342
:013DD70022C9
:104A3A007E05E4FF74632EF582E43489F583E0048D
:104A4A00F074632EF582E43489F583E0B40A1274B3
:104A5A00632EF582E43489F583E4F00F1EEEF460E8
:044A6A0003EF70CE18
:014A6E002225
:10300F00908199EBF0A3EAF0A3E9F0A3ECF0A3ED24
:01301F00F0C0
:10302000789F7C817D017BFF7A51797C7E007F08CF
:10303000122C1F124A3A908199E0FBA3E0FAA3E018
:10304000F9A3E0FCA3E0FD123D4B404E908199E0D6
:10305000FBA3E0FAA3E0F97465122C8B908199E050
:10306000FBA3E0FAA3E0F99000017472122C9D908A
:1030700000027472122C9D900003746F122C9D90AC
:1030800000047472122C9D900005740D122C9D90FA
:10309000819CE4F0A37406F08070908963E0243092
:1030A000FF908199E0FBA3E0FAA3E0F9EF122C8BEB
:1030B000908964E02430FF908199E0FBA3E0FAA3BB
:1030C000E0F9900001EF122C9D908965E02430908A
:1030D0000002122C9D908966E02430900003122C8F
:1030E0009D908967E02430900004122C9D9089689F
:1030F000E02430900005122C9D900006740D122CD7
:103100009D90819CE4F0A37407F090819C74FFF57E
:10311000F0122D2A45F070030232599081E2E0B49A
:1031200002079081E3E030E7077F32124EF5C322B9
:1031300012502C908199E0FBA3E475F001122D2A26
:10314000A9F0FA122C459081A7F0E0F4706FC390BB
:0D315000819DE0940290819CE09400405E1F
:10315D00908199E0FBA3E475F001122D2AA9F0FAF4
:10316D00122C45FF9081A9E4F0A3EFF0E0F8E4F014
:10317D00E89081A9F0908199E0FBA3E475F001122C
:10318D002D2AA9F0FA122C45FF9081AAE02FF0907C
:10319D0081A9E03400F090819DE024FEF090819CA7
:0E31AD00E034FFF09081A9E0FEA3E0FF800E69
:1031BB00C3229081A7E0FFC39420400D7E00908135
:1031CB009EE0FD12376202310A902192E493FB7468
:1031DB000193FA740293F99081A7E0FF75F002A4B2
:1031EB00F58285F083122C5E9081A8F0700302317A
:1031FB000A9081A8E09081A1F0EF75F002A4FF90F6
:10320B002192E493FB740193FA7402932FF9EA353C
:10321B00F0FA900001122C5E90819FF07B017A8175
:10322B00799F7D081247A190819EE0FF124C9DE48F
:10323B0090819FF09081A1F07B017A81799F7D082D
:0F324B001247A190819EE0FF124C9D02310AD3E1
:01325A002251
:0651C700C2D153AAFC2234
:0651CD00C2D143AA032237
:1043DF000201FE030202FD030203FC030204FB03BE
:1043EF00001932011A33021B34031C35041D360524
:1043FF001E37061F3807203908213A09223B0A23A6
:10440F003C0B243D0C253E0D263F0E27400F284127
:10441F00102942112A43122B44132C45142D4615F3
:10442F002E47162F4817304918314A505050FFFF6A
:02443F00FFFF7D
:0A511D00780906E6B40302E4F62266
:05180600780AA607228C
:104D5C007809E6FF08E675F003A424EFF582E43445
:104D6C0043F583E5822FF582E43583F583E493786C
:034D7C0008F62214
:104DE30012511D124D5C7808E6FF1251597B017A6E
:0D4DF3008179A67F05124C189081A6E0FF83
:014E0000228F
:0B4B0600908194EBF0A3EAF0A3E9F02B
:104B11007B017A8179971248A6908194E0FBA3E00A
:104B2100FAA3E0F8AC02AD037B017A81799B7E00A8
:054B31007F04022C1FAF
:03180E00024BC0CA
:10464500124F817B007A00790B124B06780EE62417
:1046550001FFE433FE7C007D19122CBFAF05121853
:1046650006E4908181F01238655008124DE312512D
:104675003BD3227F0A124EF5908181E004F0E0C31E
:05468500940340E2C3B4
:01468A00220D
:103DD800908199EFF0A3EDF0A3EBF0A3EAF0A3E94B
:013DE800F0EA
:103DE900C205125184908199E0FF90819BE0F9A36B
:103DF900E0FAA3E09081A9C9F0A3EAF0A3E9F09061
:103E0900819EE09081ACF090819FE0F9A3E0FAA354
:103E1900E09081ADC9F0A3EAF0A3E9F09081A2E0B6
:103E29009081B0F09081A3E0F9A3E0FAA3E090813A
:103E3900B1C9F0A3EAF0A3E9F090819AE0FBE4FDAF
:103E4900123961920520050D124FBE4008124DE34B
:0A3E590012502C809012513BA2057C
:013E6300223C
:03180300021811B7
:0118110032A4
:03180B00021812AE
:0118120032A3
:031813000218199F
:01181900329C
:03181B0002181A96
:01181A00329B
:031823000240F28E
:1040F200C0E0C0F0C083C082C0D075D000C000C094
:0D41020001C002C003C004C005C006C00714
:10410F00A2D19200D2D153E17F780F0690831AE0AB
:10411F0004F07006908319E004F090831BE07002A6
:10412F00A3E0600E90831CE024FFF090831BE0342B
:09413F00FFF012182EA20092D12B
:10414800D007D006D005D004D003D002D001D000CB
:0B415800D0D0D082D083D0F0D0E03275
:03182B00024F96D3
:024F9600C0D089
:0F4F9800A2D19201D2D153F17FC2D1A20192D105
:034FA700D0D03235
:03184B00024D7FCC
:044D7F00C0E0C0D000
:104D8300A2D19202D2D1E58430E7097585FA538422
:0A4D93007F758500C2D1A20292D103
:054D9D00D0D0D0E0328F
:0318530002182157
:011821003294
:03185B00024CC07C
:084CC000C0E0C083C082C0D037
:104CC800A2D19203D2D130ED08C2ED908180E5EBFC
:074CD800F0C2D1A20392D14A
:094CDF00D0D0D082D083D0E032A5
:10188E00000000000000000000000000000000004A
:10189E002A002B0051000000000028003A003B00F7
:1018AE003C003D003E003F0040004100420043002E
:1018BE004400450000002900000000000000000068
:1018CE002C001E2034202020212022202420340011
:1018DE002620272025202E2036002D003700380008
:1018EE0027001E001F0020002100220023002400DC
:1018FE00250026003320330036202E0037203820D6
:10190E001F200420052006200720082009200A2079
:10191E000B200C200D200E200F2010201120122045
:10192E0013201420152016201720182019201A20F5
:10193E001B201C201D202F003100300023202D20C5
:10194E0035000400050006000700080009000A0023
:10195E000B000C000D000E000F0010001100120005
:10196E0013001400150016001700180019001A00B5
:10197E001B001C001D002F203120302035204C0074
:10198E003A003B003C003D003E003F00400041005D
:10199E0042004300440045004500F102F802F120E8
:1019AE00F820F104F804F140F840F101F801F110CB
:1019BE00F81054005500560057006300580062009E
:1019CE0059005A005B005C005D005E005F00600025
:1019DE00610049004C004A004D004B004E00520081
:1019EE00510050004F00000049004C004A004D00CD
:1019FE004B004E005200510050004F0000005300AB
:101A0E00390047002C001E201F20344021202220A8
:101A1E0023202420252026203520350038002E00B6
:101A2E0037002D0027001E001F002000210022007D
:101A3E0023002400250026003720382064002720AC
:101A4E0064202D2014400920362019201C20072048
:101A5E0014201A20122015201D200D200F200E20DC
:101A6E000C20172013202F20182010200B200420CC
:101A7E000620302031203320112025402D402640D5
:101A8E0020202E2031400900360019001C000700CE
:101A9E0014001A00120016001D000D000F000E009B
:101AAE000C00170013002F00180010000B0004008C
:101ABE0006003000310033001100244064402740FE
:101ACE0030404C002C001E203500204021402220AA
:101ADE0023201F20252026202D00212031002E001E
:101AEE003800242027001E001F00200021002200A5
:101AFE0023002400250026003820312035402720E1
:101B0E001E402D201440042005200620072008200A
:101B1E0009200A200B200C200D200E200F20102053
:101B2E001120122013201420152016201720182003
:101B3E0019201A201B201C201D2025402D40264038
:101B4E0020202E203140040005000600070008006A
:101B5E0009000A000B0034000D000E000F001000EB
:101B6E0011001200130014001500160017001800C3
:101B7E0019001A001B001C001D0024402E40274097
:101B8E0030404C002C001E201F20204021202220FF
:101B9E002320340025202620302030003600380047
:101BAE003700242027001E001F00200021002200E5
:101BBE00230024002500260037203620640027202D
:101BCE0064202D201F400420052006200720082019
:101BDE0009200A200B200C200D200E200F20102093
:101BEE001120122013201420152016201720182043
:101BFE0019201A201B201C201D202F40354030405C
:101C0E002F2038202F0004000500060007000800D2
:101C1E0009000A000B000C000D000E000F00100052
:101C2E001100120013001400150016001700180002
:101C3E0019001A001B001C001D0034401E403140CC
:101C4E0021404C002C001E201F202020212022206D
:101C5E0023202D00252026202F202F00360038008F
:101C6E003700242027001E001F0020002100220024
:101C7E00230024002500260037203620640027206C
:101C8E0064202D201F400420052006200720082058
:101C9E0009200A200B200C200D200E200F201020D2
:101CAE001120122013201420152016201720182082
:101CBE0019201A201B201C201D20254035002640EF
:101CCE0031203820302004000500060007000800EF
:101CDE0009000A000B000C000D000E000F00100092
:101CEE001100120013001400150016001700180042
:101CFE0019001A001B001C001D002440352027402F
:101D0E0031004C002C0038002000204030003420E0
:101D1E001E00210022002D0032002E201000230074
:101D2E003620372027201E201F2020202120222071
:101D3E0023202420252026203700360064002E0084
:101D4E00642010202740142005200620072008209C
:101D5E0009200A200B200C200D200E200F203320EE
:101D6E0011201220132004201520162017201820D1
:101D7E0019201D201B201C201A20224025402D40FA
:101D8E002640250024401400050006000700080028
:101D9E0009000A000B000C000D000E000F003300AE
:101DAE001100120013000400150016001700180091
:101DBE0019001D001B001C001A00214023402E405C
:101DCE001F404C002C001E201F20320021202220FC
:101DDE0023203220252026203020300036003800E7
:101DEE003700242027001E001F00200021002200A3
:101DFE0023002400250026003720362064002720EB
:101E0E0064202D20144004200520062007200820E1
:101E1E0009200A200B200C200D200E200F20102050
:101E2E001120122013201420152016201720182000
:101E3E0019201A201B201D201C2025402D40264035
:101E4E00350038202E20040005000600070008008B
:101E5E0009000A000B000C000D000E000F00100010
:101E6E0011001200130014001500160017001800C0
:101E7E0019001A001B001D001C002440644027405E
:101E8E0030404C002C001E201F20344021202220E8
:101E9E0023202D002520262030203000360038004B
:101EAE003700242027001E001F00200021002200E2
:101EBE00230024002500260037203620640027202A
:101ECE0064202D2033400420052006200720082002
:101EDE0009200A200B200C200D200E200F20102090
:101EEE001120122013201420152016201720182040
:101EFE0019201A201B201C201D202F403500304099
:101F0E002E203820000004000500060007000800FF
:101F1E0009000A000B000C000D000E000F0010004F
:101F2E0011001200130014001500160017001800FF
:101F3E0019001A001B001C001D00000035200000B7
:101F4E0000004C002C001E201F20310021202220DA
:101F5E00242034002620272025202E2036002D0078
:101F6E003700380027001E001F002000210022002D
:101F7E0023002400250026003320330036202E00B7
:101F8E003720382034200420052006200720082082
:101F9E0009200A200B200C200D200E200F201020CF
:101FAE00112012201320142015201620172018207F
:101FBE0019201A201B201C201D202F006400300029
:101FCE0023202D2035000400050006000700080020
:101FDE0009000A000B000C000D000E000F0010008F
:101FEE00110012001300140015001600170018003F
:101FFE0019001A001B001C001D002F206420302029
:10200E0031204C002C00342033201B4033402D2037
:10201E00064031203020300038401E003600380097
:10202E0037002F2027201E201F2020202120222095
:10203E0023202420252026203720350036402D0051
:10204E00374036201940042005200620072008209E
:10205E0009200A200B200C200D200E200F2010200E
:10206E0011201220132014201520162017201820BE
:10207E0019201A201B201D201C20094014400A4044
:10208E002040382024400400050006000700080008
:10209E0009000A000B000C000D000E000F001000CE
:1020AE00110012001300140015001600170018007E
:1020BE0019001A001B001D001C0005401A4011409B
:1020CE001E404C002C001E201F20202021202220EC
:1020DE0023202420252026203420332036002D00D6
:1020EE003700380027001E001F00200021002200AC
:1020FE0023002400250026003400330036202D2036
:10210E00372038202F000420052006200720082025
:10211E0009200A200B200C200D200E200F2010204D
:10212E0011201220132014201520162017201820FD
:10213E0019201A201B201C201D2030008700310082
:10214E002E0087202F20040005000600070008003F
:10215E0009000A000B000C000D000E000F0010000D
:10216E0011001200130014001500160017001800BD
:10217E0019001A001B001C001D0030208920312080
:10218E002E204C00FF188EFF1AD2FF1B92FF1C52FE
:10219E00FF1D12FF1DD2FF1E92FF1F52FF2012FFC6
:0221AE0020D23D
:10444100500173E20100E101002701702201012303
:10445100010225010831011030045F6E7D8C2A04B0
:104461005F6E7D8C3F0512EC6FA1463A06D521EBBC
:104471002C5A4039011F3E03F6375D3B030BDF0227
:104481003C01013D01262601CF240132210101FF1A
:104491000A6D679C46F6375D4521EFAC5A50E10B3A
:0244A100DF0238
:0928A90007080000005F6E7D8C41
:104EC3009081B5EDF0C2D1C2B41249CC9081B5E066
:094ED300FF1249CCC2D1D2B42275
:0B468B009081BBEBF0A3EAF0A3E9F084
:10469600C2D1C2B41249CCE49081BFF09081BEE091
:1046A600FFA3E0C39F501F9081BBE0FBA3E475F01E
:1046B60001122D2AA9F0FA122C45FF1249CC90813D
:0A46C600BFE004F080D6C2D1D2B4E8
:0146D00022C7
:104C18009081BDEBF0A3EAF0A3E9F0C2D1C2B412CF
:104C280049CCE4FF1249CC9081BDE0FBA3E0FAA394
:0B4C3800E0F9EF122C8BC2D1D2B422A5
:0B45FD009081BEEBF0A3EAF0A3E9F010
:10460800C2D1C2B41249CCE49081C2F09081C1E019
:10461800FFA3E0C39F5021E4FF1249CC9081BEE084
:10462800FBA3E475F001122D2AA9F0FAEF122C8BE6
:0C4638009081C2E004F080D4C2D1D2B462
:014644002253
:0751A400E4FD7FE1024EC3B0
:0751AB00E4FD7FE2024EC3A8
:104FF700EDD3941040027D109081BEEDF07FA002AA
:02500700468BD6
:104B36009081A9E0FBA3E0FAA3E0F9A3E09081B994
:034B4600F0E4FF99
:104B49009081B9E0D3941040037410F0EF44A8FFAA
:0B4B59009081B9E09081BEF002468B15
:0E4504009081B5EBF0A3EAF0A3E9F0A3EDF08F
:104512007B017A8179BC7F60124C189081BCE0FFEC
:1045220060229081B8E0D39F4002EFF09081B5E025
:10453200FBA3E0FAA3E0F9A3E09081C1F07F61124E
:1045420045FD8005E49081B8F09081B8E0FFA3E0DA
:0B455200FBA3E0FAA3E0F9EF022C8BC2
:104BC000908188EBF0A3EAF0A3E9F09081BE740431
:104BD000F07F3012468B908188E0FBA3E0FAA3E0DF
:0C4BE000F99081BE7404F07F2A02468B1D
:09515900EF547FFD7F25024EC3D7
:0751B200E4FD7FFD024EC386
:0751B900E4FD7FFC024EC380
:0A5127001251B97D7F7F20024EC3B4
:0A5131001251B97DFF7F20024EC32A
:0A513B001251B97D7D7F20024EC3A2
:085184001251277F02024EF5D3
:104F3E001251B97DCE7F20124EC31251A47FFA12A8
:074F4E004F557F82024F5511
:105009001251B97DBF7F20124EC31251AB7F0202EC
:025019004EF552
:08518C001251B27F02024EF540
:085194001251B27F02024EF538
:09516200EF5470FD7F27024EC3DB
:104FD1007B017A8179B57F07124C189081B5E05435
:024FE10070FF5F
:014FE30022AB
:104E73001251B97D5A7F53124EC37F05124EF57DF1
:0B4E8300A57F53124EC37F14024EF5B2
:103865009081847444F0A37441F0E4A3F0124E7384
:10387500908186E0FF04F0908184E0FCA3E0FD2FB9
:10388500F582E43CF583E493908182F0E0FFF470E7
:103895000302394A908186E0FE04F0ED2EF582E4BC
:1038A5003CF583E493908183F0E06401602390818B
:1038B50086E0FD908185E02DFD908184E03400FA5D
:1038C500A9057BFF908183E09081BEF012468B8035
:0138D500668C
:1038D600908182E0FF908186E0FE908184E0FCA3E7
:1038E600E02EF582E43CF583E493FD124EC390810D
:1038F60082E054DF908187F0E0FFC39407400FEF2A
:103906006411600AEF641C6005EF641D70287B017A
:103916007A817987124C18908186E0FF908184E045
:10392600FCA3E02FF582E43CF583E493FF908187C6
:06393600E06F6002C322F5
:10393C00908183E0FF908186E02FF00238757F0143
:10394C00124EF57808E6FF1251597B007A00790B7C
:04395C00124BC0D377
:013960002244
:0F3961009081A6EFF09081A8EBF09081A7EDF098
:10397000C20660031251841251317F32124F5590AA
:1039800081A6E0701C124F3E9081A9E0FBA3E0FAF3
:10399000A3E0F9A3E0FD124FF71251AB12518C8056
:1039A0000F1250091251A4124B36124B3612519479
:1039B000E4780FF69081A8E0FF780FE6C39F507778
:0539C000D2D120FBEF55
:1039C500124FD19081B4EFF060E59081A6E0700BC5
:1039D5009081B4E030E54DD20680119081B4E0309D
:1039E500E6421251B97F03124EF5D2069081B0E03E
:1039F500FDA3E0F9A3E0FAA3E09081B9C9F0A3EA39
:103A0500F0A3E9F09081ADE0FBA3E0FAA3E0F912A1
:103A150045049081B1E0FBA3E0FAA3E0F9122C453F
:103A25007002C2061251AB1251A49081B4E0FF128C
:023A35005162DC
:103A37001251317F0A124F551251277F0A124F55E3
:0B3A47009081A7E0600312513BA20633
:013A52002251
:053EF0009089FFEFF0D6
:103EF500124F811251B97D8E7F20124EC37FC81299
:103F05004EF59089FFE0FD7F25124EC37D3F7F264C
:103F1500124EC37BFF7A4479919081BE7405F07F80
:103F25003F12468B7BFF7A4479999081BE7406F0E7
:103F35007F3A12468B7BFF7A44799F9081BE74014C
:103F4500F07F3912468B7BFF7A4479969081BE7457
:103F550003F07F3E12468B7BFF7A4479A09081BEA9
:103F65007403F07F3B12468B7FFA124F5512502C8B
:023F750080FBCF
:03180000023B9216
:103B9200787FE4F6D8FD9080007F007E10E4F0A3E9
:0A3BA200DFFCDEFA7581A7023BE7A5
:1028B2004181E2004181E4004781DA00C201000067
:0628C20000084181E50061
:0B50D0009081E3E04402F043901022C6
:0B50DB009081E3E04408F043902022A5
:0B50E6009081E3E04404F043981022A6
:0B50F1009081E3E04410F0439820227F
:0B50FC009081E3E04401F075881F2262
:0751C000E4F5897588062261
:064F0E007B007A007960CF
:104F1400E4FFEFC39D500A740129F9E43AFA0F80C3
:014F2400F19B
:014F25002269
:103A53009081C5EBF0A3EAF0A3E9F0A3ECF0A3EDAA
:013A6300F072
:103A64009081C8E0FEA3E0FF4E7003023AEF90811C
:103A7400C5E0FBA3E0FAA3E0F9EA494B606DD3EF9C
:103A84009440EE940040047F4080069081C8A3E0F7
:103A9400FF9081CAEFF0E0FFFDC39081C9E09DF083
:103AA4009081C8E09400F07E0078607C007D0090F6
:103AB40081C5E0FBA3E0FAA3E0F9122C1F9081CAB0
:103AC400E0FFFD9081C6E48DF0122D148F89758876
:103AD400017B007A0079609081CAE0FD124F1420C6
:103AE4008F04308CFA22C28F023A64E4F589758817
:013AF4000AC7
:013AF50022AE
:0E504D008F89758801308FFDC28F75880A2209
:09516B00758802308FFDC28F220D
:0547A1009081ABEDF07A
:1047A600E4A3F0A3F0D2D1EDFF7E0078007C807DFB
:1047B60001122C1F9081ABE0F59175900120961C9B
:1047C600309404C29480159081ACE475F001122DEA
:0E47D60014FED3E5F09410EE942740E1C29655
:0147E40022B2
:0547E5009081FDEDF0E4
:1047EA00E4A3F0A3F0D2D1EDFF7E0078807C807D37
:1047FA0001122C1F9081FDE0F599759801209E1CED
:10480A00309C04C29C80159081FEE475F001122D43
:0E481A0014FED3E5F09410EE942740E1C29E08
:01482800226D
:03181600C2A72244
:103AF6007860E6FF30E7739081E2E0FE7003023BF8
:103B06008EEF541F600D24FE601C04707BEEB40122
:103B16000280759081E3E030E60678607602805D8B
:103B2600E47860F680577864E6247F601A14603380
:103B3600248270529081E3E030E006E47860F680FB
:103B4600047860760180369081E2E0B40102803824
:103B56009081E3E030E106786076018004E47860E5
:103B6600F6801A9081E2E0B40102801C9081E3E0C5
:103B760030E206786076018004E47860F6E47861E5
:0C3B8600F67F0202504D80001250FC221D
:104079009081E2E064026002806B7860E6FD640290
:1040890070567862E6700D08E6FE70087867E6708B
:1040990003EE6002804F7864E614602214602B24DA
:1040A90080600F0470309081E3E054FDF05390EF8D
:1040B90080309081E3E054FBF05398EF80249081A5
:1040C900E3E054F7F05390DF80189081E3E054EF78
:1040D900F05398DF800C800DED700A9081E3E05475
:0940E900BFF00251C01250FC228C
:1042B2009081E2E06402705B7860E6FD70187962DA
:1042C200E77866460846786346640170469081E363
:1042D200E04440F0803AED640270387862E6703370
:1042E2007866E6702E08E6702A7863E670257864B0
:1042F200E614600F1460162480600D0470151250CD
:10430200D0800D1250DB80081250E680031250F16B
:064312000251C01250FC34
:014318002282
:104AA3007864E6701308E6700F08E6700B08E6708A
:104AB300079081E2E0B402031250FC7862E6FF60E3
:104AC300089081E27401F08005E49081E2F08F8A1E
:034AD3000251C0CD
:104163007867E6FF9081C3E4F0A3EFF0E0F8E4F0B2
:10417300E89081C3F07866E6FFA3E02FF09081C357
:10418300E03400F09081E4E070227BFF7A2F7974B1
:104193009081C3E0FEA3E0FFD39412EE94004006A7
:1041A3007C007D128026AC06AD0780207BFF7A2F32
:1041B30079BA9081C3E0FEA3E0FFD39412EE94009A
:0F41C30040067C007D128004AC06AD07123A5313
:0141D20022CA
:103C2C007867E6FF9081C3E4F0A3EFF0E0F8E4F0EE
:103C3C00E89081C3F07866E6FFA3E02FF09081C393
:103C4C00E03400F09081E4E070327BFF7A2F7986CB
:103C5C00902F8893FFD39081C4E09F9081C3E09410
:103C6C0000400C902F88E4937E007C00FD803E90F9
:103C7C0081C3E0FEA3E0FFAC06FD80317BFF7A2F11
:103C8C0079CC902FCEE493FFD39081C4E09F9081A8
:103C9C00C3E09400400C902FCEE4937E007C00FD9A
:103CAC00800B9081C3E0FEA3E0FFAC06FD123A53FB
:013CBC0022E5
:10361B007867E6FF9081C3E4F0A3EFF0E0F8E4F005
:10362B00E89081C3F07866E6FFA3E02FF09081C3AA
:10363B00E03400F07862E614604814607014700394
:10364B000236E214700302370C147003023736246F
:10365B000560030237617BFF7A2E79DE902EDEE464
:10366B0093FF9081C3E0FCA3E0FDC39FEC9400505B
:10367B000302375E902EDEE493FF7E007C00FD029A
:10368B00375E7BFF7A2E79E2902EE2E493FF9081F6
:10369B00C3E0FCA3E0FDC39FEC94005002800B90B1
:1036AB002EE2E493FF7E007C00FD02375E7BFF7A07
:1036BB002F7902902F02E493FF9081C3E0FCA3E0EB
:1036CB00FDC39FEC94005002800B902F02E493FFFC
:1036DB007E007C00FD807C7BFF7A2F795A902F5ADD
:1036EB00E493FF9081C3E0FCA3E0FDC39FEC940047
:1036FB005002800B902F5AE493FF7E007C00FD80DC
:10370B00527BFF7A2F7922902F22E493FF9081C373
:10371B00E0FCA3E0FDC39FEC94005002800B902FC4
:10372B0022E493FF7E007C00FD80287BFF7A2F79BB
:10373B003C902F3CE493FF9081C3E0FCA3E0FDC3DE
:10374B009FEC94005002800B902F3CE493FF7E0083
:06375B007C00FD123A5350
:013761002245
:1041D3007867E6FF9081C3E4F0A3EFF0E0F8E4F042
:1041E300E89081C3F07866E6FFA3E02FF09081C3E7
:1041F300E03400F07864E614602204703F12505BF0
:104203009081C3E0FEA3E0FFD39409EE940040063F
:104213007C007D098023AC06AD07801D1250699098
:1042230081C3E0FEA3E0FFD39409EE940040067C33
:0F423300007D098004AC06AD07023A531250FC1F
:014242002259
:104D38007864E614600D0470177BFF7A2D79BF7DC7
:104D48003F80087BFF7A2E79A97D357C00023A5393
:044D58001250FC22D7
:03181E000250FC79
:1046D1007866E66401701B08E670177865E670126B
:1046E10018E6700E18E6700A18E670069081E2E08E
:1046F10070031250FC9081E2E0FFB40106E478609F
:10470100F6800DEFB402067860760180030250FC5A
:064711007F0112504D2251
:104A6F007867E6702B7865E670267863E67021909C
:104A7F0081E2E0700280197862E6FF70069081E2B1
:104A8F00048009EFB401099081E27402F00251C071
:044A9F001250FC2293
:104C43007866E6B4010E7862E6700908E6700578C6
:104C530067E660031250FC9081E2E0640260031295
:0B4C630050FCE47860F67F0102504D29
:104CE8007866E6701208E6700E7862E6700908E6E3
:104CF80070057865E660031250FC9081E2E064027A
:084D080060031250FC0251C0CF
:03182600024E3B34
:0C50A0009081E1E07860F67F0102504D45
:104DC3007866E6640160031250FC9081E3E030E50D
:104DD30006E47860F68004786076017F0102504D26
:104319007867E6FF9081C4E4F0A3EFF0E0F8E4F0F9
:10432900E89081C4F07866E6FFA3E02FF09081C49D
:10433900E03400F0E4908201F012516B9081C3E502
:1043490089F07B007A007960E0FD124F14E0FF6488
:1043590001601D1242439081C3E0FFC39081C5E013
:104369009FFF9081C4E09400FEF0A3EFF04E70C966
:034379001251C01E
:01437C00221E
:0A5145007863E69081E1F00251C0AA
:104FE4009081E3E054DFF07862E67004E04420F05E
:034FF4000251C0A7
:104DA200758802308FFDC28FAD89124F0E78DA7C82
:104DB200817D017A0079607E007F07122C1F0251EB
:014DC200C030
:104F260078607C007D007B017A8179DA7E007F07DC
:084F3600122C1F7F0702504DF1
:0A514F007862E69081E5F00251C09D
:104E57009081E3E030E714D2D14380027F0A124EFB
:0C4E6700F55380FD9081E3E0547FF022C1
:104D10007863E624FE601114601124E260101460D0
:104D2000102421700F024163023C2C02361B024109
:084D3000D3024D381250FC22A1
:08519C007D08124F0EC28F22A4
:0B510700D2D175800CC2D153AAFC224B
:10503D00D2D175800DC2D143AA039081E4EFF02245
:03188B00023480A4
:10348000C0E0C0F0C083C082C0D075D000C000C012
:0D34900001C002C003C004C005C006C00793
:10349D00A2D19207D2D1E58030E73E53807F908153
:1034AD00E2E4F0A3F0F58A758802F58975900C7544
:1034BD00980C75A00CF591F599F5A19081E5F0901A
:1034CD0081DAF0A374C2F0A37401F0A3E4F0A3F0C9
:1034DD00A3F0A37408F00235FCE58030E6165380A6
:1034ED00BF9081E2E0640260030235FCA3E04480FA
:1034FD00F00235FCE58030E50D5380DF9081E3E08F
:10350D00547FF00235FC208F030235F612519C7862
:10351D0060E65460706B08E6B40C00507590353160
:10352D00F828287302355502355B02358C0235615A
:10353D0002358C02356702356D023573023578021E
:10354D00357D023582023587123AF60235F6124084
:10355D00790235F61242B20235F6124AA30235F659
:10356D00124D100235F612181E807E1246D180794A
:10357D00124A6F8074124C43806F124CE8806A803F
:10358D00657860E6FF5460FEBE2007EF541F6401AE
:10359D00600280527861E6122D4035C60135CB02AE
:1035AD0035D00335D50935DA0A35DF0B35E9203548
:1035BD00E42135EE22000035F3121826802B12502F
:1035CD00A08026124DC38021124319801C12514533
:1035DD008017124FE48012124F26800D124DA280DB
:1035ED000812514F80031250FC30A703121816A277
:0335FD000792D161
:10360000D007D006D005D004D003D002D001D0001E
:0B361000D0D0D082D083D0F0D0E032C8
:10495A009081B2EFF0A3EDF0D2D17E007F087D0006
:10496A007B017A807900122D939081B2E0908000C9
:10497A00F09081B3E0908002F07591087590012063
:0A498A0096053094FAC294C29622FA
:102DBF0005010906A101050719E029E715002501FD
:102DCF0075019508810295017508810395067508AF
:102DDF001500258F05071900298F810095057501AD
:102DEF000508190129059102950175039103C00585
:102DFF00010902A10185010901A100050919012994
:102E0F000515002501950575018102950175038151
:102E1F000305010930093109381580257F7508959B
:102E2F00038106C0C0050C0901A10185021500250B
:102E3F0001050C09B509B609B709CD09B309B409DC
:102E4F00B809B975019508810209E209E909EA098A
:102E5F00B20A2A020A2B020A83010A92017501950E
:102E6F000881020A23020A24020A25020A26020AFC
:102E7F0027020A8A010A96010A94017501950881B1
:102E8F000205011500250109810982098395037542
:102E9F00018106950175058103C006A0FF0901A1F7
:102EAF00018501090826FF001500750895FFB1027D
:102EBF008502090826FF001500750895FFB10285E8
:102ECF0003090826FF001500750895FFB102C0041D
:102EDF00030904200342004100520043004F004405
:102EEF0000450020005300430041004E004E0045B6
:102EFF00005200200342004100520043004F0044A3
:102F0F0000450020005300430041004E004E004595
:102F1F000052001A0355005300420020004B006579
:102F2F0000790062006F006100720064001E03559B
:102F3F0000530042002000560045004E004400455B
:102F4F0000520020004800490044001A0353004E6D
:102F5F000032003000310037003000360056004597
:102F6F0000520031001201100100000040FFFF3538
:102F7F000001000102030109023400020100A064F4
:102F8F0009040000010301010409211001000122BD
:102F9F003F00070581034000010904010000030001
:102FAF000005092110010001223500120110010254
:102FBF000000404A290001010001020301090243F8
:102FCF0000020100A06409040000010202010005D3
:102FDF002400100105240101010424020205240626
:102FEF0000010705810340000A09040100020A00DD
:102FFF0000000705820240000007050302400000A1
:0D505B007BFF7A2F7986741229F9E43AFA66
:015068002225
:0D5069007BFF7A2F7986742B29F9E43AFA3F
:015076002217
:0B511200C2D1758403E4F585F59722F7
:0A28C800C1084189FE004189FD00AE
:0B471700908181EFF0A3ECF0A3EDF027
:10472200C2D1E4A3F0908181E0FF908184E0C39F35
:104732005027D290908182A3E0FF124EF5C2909052
:104742008181E064016007A3A3E0FF124EF51250DD
:094752002C908184E004F080CC7D
:01475B00223B
:0C50AC0030080830080512502C80F82253
:10182E003008199089FDE004F0A3E0FF9089FDE0F7
:0C183E00D39F4008C208E4F0C2D1C29061
:01184A00227B
:0C50B800D2089089FEEFF0C2D1D2902205
:10185E00C2D175E3FF7593FF75A3FF75B3FF43B157
:10186E0010D2B443B120C2B5D2D175FB3F43F901BA
:0D187E0043FA0243FA0843F92043FA10220E
:104E0100D2D17C007D30122D66EF24FFFFEE34FFFE
:0C4E1100F5E58FE475E101E4F5E2F5E35E
:014E1D002272
:104E1E00D2D17C007D30122D66EF24FFFFEE34FFE1
:0C4E2E00F5F58FF475F101E4F5F2F5F3F1
:014E3A002255
:044E8E00AB07AA06BE
:104E9200EA540FF9AF03D2D175E888AE01EDC454DC
:064EA200F04EF5E98FEA75
:014EA80022E7
:104FAA00A2D19209D2D18FEBD2EA30ECFDC2ECA2A7
:034FBA000992D188
:014FBD0022D1
:104829009089E9EBF0A3EAF0A3E9F0A3ECF0A3ED9A
:01483900F08E
:10483A00E4FDFCD39089EDE09D9089ECE09C401D5D
:10484A009089E9E0FBA3E0FAA3E0F98D828C831258
:0D485A002C5EFF124FAA0DBD00010C80D690
:01486700222E
:0D509300D2D1EF70038D9622AF058FA622BB
:0C50C400D2D1EF7003F59522E4F5A5228F
:10501B00ED4420FED2D1EF70038E9522AF068FA503
:01502B002262
:104C6E00D2D1EF70118D97439510E59530E7FB5338
:104C7E00956FAE978011AF058FA743A510E5A530B0
:094C8E00E7FB53A56FAEA7AF06CA
:014C970022FA
:104EDC00EE54FED2D1F5DFE4F5DE75DC7775DC3B04
:084EEC00E5DC30E7FB53DC7F3D
:014EF400229B
:10475C009081EDEEF0A3EFF0E4FFFED39081ECE05E
:10476C009F9081EBE09E402C9081EDE0FCA3E0F566
:10477C00828C83E493122C8B740129F9E43AFA901D
:10478C0081EEE004F070069081EDE004F00FBF00C4
:04479C00010E80C7C3
:0147A00022F6
:103FFB009081F1EBF0A3EAF0A3E9F09081EFEEF002
:03400B00A3EFF030
:10400E00EE54FE9081EFF0A3E4F0D2D1FDFCC3ECB0
:10401E00940250569081EFE0FAA3E0FBEAF5DF8BB5
:10402E00DE9081F5E09D9081F4E09C40179081F147
:10403E00E0FBA3E475F001122D2AA9F0FA122C452B
:10404E00F5DD800375DDFF75DC5D75DC74E5DC3058
:10405E00E7FB53DC7F0DBD00010C9081F0E004F016
:0A406E0070AC9081EFE004F080A434
:014078002225
:083CBD00908185EEF0A3EFF009
:103CC500D2D1E4FDFCD390818BE09D90818AE09C6C
:103CD5004073908185E0F5DFA3E0F5DE122C45F514
:103CE500DD75DC5D75DC74E5DC30E7FB53DC7F906E
:103CF5008185E0F5DFA3E0F5DE122C45F5DD75DC09
:103D05005D75DC74E5DC30E7FB53DC7F908185E095
:103D1500F5DFA3E0F5DE122C45F5DD75DC5D75DC20
:103D250074E5DC30E7FB53DC7F740129F9E43AFAEA
:103D35000DBD00010C908186E004F07088908185AE
:053D4500E004F08080A5
:013D4A002256
:104EA900D2D17585FA7586F77585FAEFC454F04441
:0A4EB90009F5847585FAE4F58522F9
:10502C00A2D19206D2D17585FAE4F585A20692D169
:01503C002251
:104F8100C2D143B110D2B443B120C2B5D2D143F999
:054F91002043FA10228C
:1049CC00E4FDD2D1EF30E704D2FD8002C2FDEF2529
:1049DC00E0FF0000C2D1D2B5EE25E0FED2D130FC12
:1049EC00054401FE8004EE54FEFE0000C2D1C2B5A7
:0749FC000DEDB408CDAF067C
:014A03002290
:104F5500000000000000000000000000000000004C
:074F650000000000DFEA225A
:104EF500AE077FFA124F557FFA124F557FFA124FC0
:094F0500557FF8124F55DEEA2237
:104B64001251121251077F0A124EF512185E7F0A73
:104B7400124F557F05124EA97FE87E03124E011293
:0E4B84004F81E4FD7FC37E09124E8E025085E4
:0B48A60090819FEBF0A3EAF0A3E9F083
:1048B1007F40D2D1E4FEE4F5DFAD070F8DDE75DC7C
:1048C1007475DC1690819FE0FBA3E475F001122D55
:1048D1002AA9F0FAE5DD122C8B53DC7F0EEEB40829
:0148E100D501
:0148E20022B3
:0E4A04009089F3EBF0A3EAF0A3E9F0A3EDF044
:104A1200E4FFFE9089F6E0FDEFC39D50189089F304
:104A2200E0FBA3E0FAA3E0F98F82758300122C5E0B
:074A32006EFE0F80DEAF06EF
:014A3900225A
:0D507700124A049089F2E0B50702D322C36B
:015084002209
:0B4B92009089F7EBF0A3EAF0A3E9F034
:104B9D00E4FFEFC39D501A9089F7E0FBA3E0FAA361
:104BAD00E0F98F82758300122C5E6002C3220F80A4
:024BBD00E1D342
:014BBF0022D3
:0B4BEC009089FAEBF0A3EAF0A3E9F0D7
:104BF700E4FFFEEEC39D50189089FAE0FBA3E0FAAC
:104C0700A3E0F98E82758300122C5E2FFF0E80E3DE
:014C1700227A
:0E3E64009081F6EBF0A3EAF0A3E9F0A3EDF0F5
:103E720074FF9081FBF0A3F0E49081FAF09081F955
:103E8200E0FFA3E0FEC39F505C9081F6E0FBA3E05D
:103E9200FAA3E0F98E82758300122C5EFE9081FBFC
:103EA200E06EF0A3E0F0E4FD9081FBE0FEA3E0FF12
:103EB200EE30E717EF25E0FFEE336410FEEF6421EA
:103EC200FF9081FBEEF0A3EFF0800D9081FCE025E6
:103ED200E0F09081FBE033F00DEDB408CB9081FA75
:0D3EE200E004F080989081FBE0FEA3E0FF7B
:013EEF0022B0
:0E508500C2D175A810E4F5A975AA03F5AB22F7
:103BAC0002437DE493A3F8E493A34003F68001F26F
:103BBC0008DFF48029E493A3F85407240CC8C3331A
:103BCC00C4540F4420C8834004F456800146F6DFE9
:103BDC00E4800B01020408102040809021B0E47EA8
:103BEC00019360BCA3FF543F30E509541FFEE493DE
:103BFC00A360010ECF54C025E060A840B8E493A3A5
:103C0C00FAE493A3F8E493A3C8C582C8CAC583CACF
:103C1C00F0A3C8C582C8CAC583CADFE9DEE780BE87
:0128D2000005
:102B4F00E709F608DFFA8046E709F208DFFA803E68
:102B5F0088828C83E709F0A3DFFA8032E309F60855
:102B6F00DFFA8078E309F208DFFA807088828C83BD
:102B7F00E309F0A3DFFA806489828A83E0A3F60871
:102B8F00DFFA805889828A83E0A3F208DFFA804C4B
:102B9F0080D280FA80C680D4806980F28033801022
:102BAF0080A680EA809A80A880DA80E280CA80338B
:102BBF0089828A83ECFAE493A3C8C582C8CCC58303
:102BCF00CCF0A3C8C582C8CCC583CCDFE9DEE780D3
:102BDF000D89828A83E493A3F608DFF9ECFAA9F052
:102BEF00EDFB2289828A83ECFAE0A3C8C582C8CCA8
:102BFF00C583CCF0A3C8C582C8CCC583CCDFEADEC1
:102C0F00E880DB89828A83E493A3F208DFF980CC22
:102C1F0088F0EF60010E4E60C388F0ED2402B4041B
:102C2F000050B9F582EB2402B4040050AF232345C2
:062C3F008223902B9F731D
:102C4500BB010689828A83E0225002E722BBFE028D
:092C5500E32289828A83E49322C0
:102C5E00BB010CE58229F582E5833AF583E022502B
:102C6E0006E92582F8E622BBFE06E92582F8E22275
:0D2C7E00E58229F582E5833AF583E493228F
:102C8B00BB010689828A83F0225002F722BBFE0128
:022C9B00F32222
:102C9D00F8BB010DE58229F582E5833AF583E8F06D
:102CAD00225006E92582C8F622BBFE05E92582C819
:022CBD00F22201
:102CBF00BC000BBE0029EF8DF084FFADF022E4CCF9
:102CCF00F875F008EF2FFFEE33FEEC33FCEE9DECC2
:102CDF00984005FCEE9DFE0FD5F0E9E4CEFD22ED08
:102CEF00F8F5F0EE8420D21CFEADF075F008EF2F52
:102CFF00FFED33FD4007985006D5F0F222C398FD43
:052D0F000FD5F0EA22DF
:102D1400C5F0F8A3E028F0C5F0F8E582158270024A
:062D24001583E038F022E7
:102D2A00A3F8E0C5F025F0F0E5821582700215835C
:062D3A00E0C838F0E822B9
:102D4000D083D082F8E4937012740193700DA3A322
:102D500093F8740193F5828883E473740293686036
:062D6000EFA3A3A380DF36
:102D6600EC8EF0A4CCC5F0CCCDF8EFA4CEC5F02DFA
:102D7600FDE43CFCE8A42EC8C5F03DFDE43CFCEFB8
:0D2D8600A4FFE5F028FEE43DFDE43CFC2246
:102D9300EF4E6012EF60010EEDBB010B89828A8357
:102DA300F0A3DFFCDEFA2289F05007F709DFFCA964
:0C2DB300F022BBFEFCF309DFFCA9F022BB
:00000001FF
