:1021B00060408963303132333435363738396162C3
:1021C000636465666768696A6B6C6D6E6F70717267
:1021D000737475767778797A414243444546474827
:1021E000494A4B4C4D4E4F505152535455565758E7
:0421F000595A0D002B
:104148001248A590831D7403F09083217410F09099
:1041580081E5E0FF124D92D2AF1243F650097D641B
:104168007C007F021244C8124D8190831DE024FE1A
:10417800601214601A24FE601E240470EA7F011283
:104188002D2480E31242C790831D7401F080D890DB
:10419800831D7402F080D012461990831D7401F0BB
:0241A80080C5D0
:084EC9005F6E7D8CAABBCCDDFD
:1021F400448315AA000055664A83190000000000B4
:1022040000000000000000000000000000000000CA
:1022140000000000000000000000000000000000BA
:1022240000000000000000000000000000000000AA
:10223400000000000000000000000000000000009A
:1028440000000000005083050000000000000000AC
:0828540000000000000000007C
:0E431B00908199EBF0A3EAF0A3E9F0A3EDF096
:10432900E4FE90819CE0FD14F0ED602F908199E00E
:10433900FBA3E475F001122C8FA9F0FA122BCC6EB5
:10434900FE7F08EFD3940040D9EE30E70725E064FB
:0D43590031FE8004EE25E0FE1F80E8AF0677
:014366002234
:054BFF009081FEEDF0C5
:104C0400122BCCB4FE0A900001122BE564EF600273
:034C1400C322D3E5
:014C1700227A
:10469400908194EBF0A3EAF0A3E9F0A3ECF0A3ED8E
:0146A400F025
:1046A50014FD12431B908194E0FBA3E0FAA3E0F90B
:1046B500908198E024FFFD908197E034FF8D82F58D
:0A46C50083122BE5B50702D322C3D0
:0146CF0022C8
:1043AF009081997402F0908316EFF0E4908319F0E6
:1043BF00A3F0908319F0A3F090819F7404F0A3747D
:1043CF0001F0A37481F0A37494F0A37410F0A3749C
:1043DF0001F0A37481F0A37498F07B017A837915AF
:0743EF007D507F01023BAD90
:104D1300D390831AE09458908319E094024002D30D
:034D230022C32286
:102F71009081CCEBF0A3EAF0A3E9F09081CCE0FBE7
:102F8100A3E0FAA3E0F9900001122BE5541FFE9093
:102F91008321E06E700302319590831B7403F0A3CB
:092FA10074E8F0EF700302317EC8
:102FAA00122BCCFF7E0024FFF582EE34FFF583124C
:102FBA002BE59081CFF074FE2FF582EE34FFF58376
:102FCA00122BE59081D0F0E92404F9E43AFAC00220
:102FDA00C0019081CCA3E0FAA3E0F9122BCC24FA29
:102FEA00FDD001D002123C399081D1EEF0A3EFF06E
:102FFA009081D1E0FCA3E0FDECFF9081D0E0FBEFF3
:10300A006B7001E46003023195AF059081CFE0FD5A
:0A301A00EF6D7001E46003023195D0
:103024009081CCE0FBA3E0FAA3E0F9900001122B1D
:10303400E5C4135407FF90831FF0900003122BE59F
:0A3044009081D3F0EF7003023143D6
:10304E00E49081D8F09081CCA3A3900002122BE5DE
:10305E009081DAF075F064849081D9F06017E024E5
:10306E0030FF9081D8E0FE04F074D42EF582E43463
:10307E0081F583EFF09081DAE0FF75F06484E5F07E
:10308E0075F00A849081D9F09081D8E07004A3E0A5
:10309E00601A9081D9E02430FE9081D8E0FD04F0D2
:1030AE0074D42DF582E43481F583EEF0EF75F00AD9
:1030BE0084E5F02430FF9081D8E0FE04F074D42E25
:1030CE00F582E43481F583EFF090831FE024FE60F7
:1030DE001D146030240270409081D8E0FF04F0741B
:1030EE00D42FF582E43481F5837409F0802A90811F
:1030FE00D8E0FF04F074D42FF582E43481F58374A4
:10310E0020F080149081D8E0FF04F074D42FF58263
:10311E00E43481F583742DF0124D817B017A81792F
:10312E00D49081D8E0FD7C009081D3E0547F9081D3
:05313E009EF012333188
:10314300124D819081CCE0FBA3E0FAA3E02404F9C3
:10315300E43AFAC002C0019081CCA3E0FAA3E0F9FB
:10316300122BCC24FAFDE434FFFC9081D3E0547F8E
:0B31730090819EF0D001D00212333199
:10317E009081CCE0FBA3E0FAA3E0F9900001122BC2
:08318E00E5541F908321F0229B
:103DCA00908194EBF0A3EAF0A3E9F090831B7403CB
:083DDA00F0A374E8F0EF606152
:103DE200908194E0FBA3E0FAA3E0F9900001122B8A
:103DF200E5FF908197E4F0A3EFF0E0F8E4F0E890BB
:103E02008197F0900002122BE5FF908198E02FF04D
:103E1200908197E03400F0124D81908194E0FBA3F1
:103E2200E0FAA3E02406F9E43AFA908198E024F952
:103E3200FD908197E034FFFC90819E7402F0123372
:013E4200314E
:013E4300225C
:052D2400908185EFF035
:102D2900E490818DF0A3F0F9A3C9F0A3F0A3E9F031
:102D3900E4908319F0A3F0908186F0124D8190817F
:102D490085E0700B7B017A81798812484780137876
:102D5900887C817D017BFF7A4179AA7E007F0412FC
:102D69002BA6908186E0601A75F00FA42423F974CC
:102D79008335F0FA90818F7401F0A3EAF0A3E9F0AA
:102D8900800E90818F7401F0A37483F0A37405F011
:102D990090819F7404F090818FE0F9A3E0FAA3E099
:102DA9009081A0C9F0A3EAF0A3E9F0A37410F0A3FD
:102DB9007401F0A37481F0A37487F07B017A81799F
:102DC900887D507F01123BAD9204200403022F6ECF
:102DD900E4908319F0A3F090818FE0FBA3E0FAA3BC
:102DE900E0F9122BCC90818CF0D3946650047F01CA
:102DF90080027F0090818CE0FEC3940140047D0134
:102E090080027D00ED5F7003022EF6908186E0243A
:102E190001FDE433FCEE6D7001EC6003022EE3A3C7
:102E2900E024FFFFE434FFFEE92401F9E43AFAC0A3
:102E390003C00290818FE0FBA3E0FAA3E0F8AC02A3
:102E4900AD03D002D003122BA6908187E0FF24FFA7
:102E5900FDE434FFFC90818EE02DF090818DE03C03
:102E6900F090818CE064016003022EFA90818FE07A
:102E7900FBA3E0FAA3E02401F9E43AFAEF24FEFD0A
:102E890012431B90818FE0FBA3E0FAA3E0F9122B18
:102E9900CC6F6003022F70900004122BE5FF908322
:102EA90021E0B50714908185E0FF7B017A837923BE
:102EB900123DCA9083217410F0908187E024FFFFAE
:102EC900E434FFFE78237C837D0190818FE0FBA3AE
:102ED900E0FAA3E0F9122BA68017908186E0FF9013
:102EE900818CE0B50703022D44C2048078C20480B6
:0C2EF90074300462908185E06401705A1E
:102F0500908324E0FF908192E4F0A3EFF0E0F8E4F1
:102F1500F0E8908192F0908325E0FF908193E02F77
:102F2500F0908192E03400F090818DE0FEA3E0FF07
:102F3500908192E0FCA3E0FDB5071FECB5061B7B75
:102F4500017A837923124694501F908326E0541FFB
:0A2F5500FF908321F01243AF800FBC
:102F5F00908186E004F0E0C394645003022D44A2F4
:012F6F00045D
:012F7000223E
:1042C70078817C817D017BFF7A4E79C97E007F04EE
:1042D700122BA67F19121806124B1F7B017A8179C0
:1042E7008112180EE4FF122D24E4FF122D24E4FF9F
:1042F700122D24780EE62401FFE433FE7C007D199D
:10430700122C24AF05121806124B1F7B007A007976
:044317000B02180E6F
:1046190078817C817D017BFF7A4E79CD7E007F0494
:10462900122BA67F007E16124C317B017A8179818B
:1046390090818AE4F0A37404F07F007E16123B1F78
:0E464900C2D1E4F5A8F5A9F5AAF5AB02000070
:084ED1000000000000000000D9
:10470A009081C6EFF07E017F007D007B017A82797D
:10471A0003122CF89082037403F090820B74AAF0AF
:10472A00E4A3F09081C6E090820DF0240FF582E4B4
:08473A003482F58374BBF02208
:104CC100D2D17B017A82790390820DE0240DFDE43B
:054CD10033FC0238B5C0
:104817009081C4EFF0A3EDF07F0212470A9081C4A4
:10482700E090820EF09081C5E0FF90820FF09082B9
:104837000EE0FE90820DE06E6F908210F0024CC188
:10400E009081C7EFF0908201E070397866E6F0E4B7
:10401E00A3F09081C7E0FFD394084052EF24F8FF3D
:10402E00E434FFFE908202E02403F9E43482A80116
:10403E00FC7D017B007A007968122BA69081C7E087
:10404E0024F880239081C7E0FF7E00908202E02456
:10405E0003F9E43482A801FC7D017B007A007960CB
:0F406E00122BA69081C7E0FF908202E02FF02274
:104B7700908206E02460700C90831D7405F07D80A0
:0C4B8700E4FF80047D8F7F01124817229C
:104A75009081ABEFF0601B9081ABE0B401047F0146
:104A8500800D9081ABE0B402047F0380027F0712A2
:034A95004C4A2266
:0437C800AB07AA069B
:1037CC007C007D0A122C249081B0EDF07C007D0AE7
:1037DC00AF03AE02122C24AA06AB077C007D0A12A2
:1037EC002C249081AFEDF07C007D0AAF03AE021269
:1037FC002C24AA06AB077C007D0A122C249081AEE7
:10380C00EDF07C007D0AAF03AE02122C24AA06ABAD
:10381C00077C007D0A122C249081ADEDF07C007D9C
:10382C000AAF03AE02122C24AA06AB077C007D0A59
:10383C00122C249081ACEDF0E4FD7F401246D0E4D4
:10384C009081ABF09081ABE0FFC39405505574AC04
:10385C002FF582E43481F583E0FF9081AB700FE0AB
:10386C0024ACF582E43481F5837462F08012E0FEBE
:10387C00EF2458FF74AC2EF582E43481F583EFF01D
:10388C009081ABE024ACF582E43481F583E0FD7FDC
:10389C00401246D0E4FD7F401246D09081ABE0044C
:0938AC00F080A1E4FDFF0246D00A
:10333100908199EBF0A3EAF0A3E9F0A3ECF0A3EDFF
:01334100F09B
:10334200789F7C817D017BFF7A4E79D17E007F0858
:10335200122BA690819C74FFF5F0122C8F45F07011
:10336200030234919081E3E0B402079081E4E030FB
:10337200E7077F32124C4AC322124D81908199E0B5
:10338200FBA3E475F001122C8FA9F0FA122BCC905A
:1033920081A7F0E0F47073C390819DE09402908164
:0633A2009CE09400406273
:1033A800908199E0FBA3E475F001122C8FA9F0FA43
:1033B800122BCCFF9081A9E4F0A3EFF0E0F8E4F041
:1033C800E89081A9F0908199E0FBA3E475F00112DF
:1033D8002C8FA9F0FA122BCCFF9081AAE02FF09045
:1033E80081A9E03400F090819DE024FEF090819C5A
:1033F800E034FFF09081A9E0FEA3E0FF1237C80295
:0234080033553A
:10340A00C322902192E493FB740193FA740293F914
:10341A009081A7E0FF75F002A4F58285F083122B54
:10342A00E59081A8F070030233559081A8E090815D
:10343A00A1F0EF75F002A4FF902192E493FB7401CE
:10344A0093FA7402932FF9EA35F0FA900001122BDD
:10345A00E590819FF07B017A81799F7D0812455220
:10346A0090819EE0FF124A75E490819FF09081A1BD
:10347A00F07B017A81799F7D0812455290819EE006
:08348A00FF124A75023355D30D
:013492002217
:064F1C00C2D153AAFC22E1
:064F2200C2D143AA0322E4
:1041AA000201FE030202FD030203FC030204FB03F5
:1041BA00001932011A33021B34031C35041D36055B
:1041CA001E37061F3807203908213A09223B0A23DD
:1041DA003C0B243D0C253E0D263F0E27400F28415F
:1041EA00102942112A43122B44132C45142D46152B
:1041FA002E47162F4817304918314A505050FFFFA2
:02420A00FFFFB4
:0A4E7200780906E6B40302E4F62214
:05180600780AA607228C
:104A98007809E6FF08E675F003A424BAF582E43441
:104AA80041F583E5822FF582E43583F583E4937835
:034AB80008F622DB
:104B1F00124E72124A987808E6FF124EAE7B017A57
:0D4B2F008179A77F051249599081A7E0FF09
:014B3C002256
:0B484700908194EBF0A3EAF0A3E9F0ED
:104852007B017A817997124657908194E0FBA3E01D
:10486200FAA3E0F8AC02AD037B017A81799B7E006A
:054872007F04022BA6EB
:03180E000249018B
:1043F600124CD67B007A00790B124847780EE624D9
:1044060001FFE433FE7C007D19122C24AF0512183F
:1044160006E4908181F01235DA5008124B1F124ED5
:1044260090D3227F0A124C4A908181E004F0E0C3C7
:05443600940340E2C305
:01443B00225E
:103BAD0090819AEFF0A3EDF0A3EBF0A3EAF0A3E977
:013BBD00F017
:103BBE00C205124ED990819AE0FF90819CE0F9A344
:103BCE00E0FAA3E09081AAC9F0A3EAF0A3E9F0908D
:103BDE00819FE09081ADF09081A0E0F9A3E0FAA37F
:103BEE00E09081AEC9F0A3EAF0A3E9F09081A3E0E2
:103BFE009081B1F09081A4E0F9A3E0FAA3E0908166
:103C0E00B2C9F0A3EAF0A3E9F090819BE0FBE4FDDA
:103C1E001236D6920520050D124D134008124B1F79
:0A3C2E00124D818090124E90A20505
:013C38002269
:03180300021811B7
:0118110032A4
:03180B00021812AE
:0118120032A3
:031813000218199F
:01181900329C
:03181B0002181A96
:01181A00329B
:03182300023EBDC5
:103EBD00C0E0C0F0C083C082C0D075D000C000C0CB
:0D3ECD0001C002C003C004C005C006C0074C
:103EDA00A2D19200D2D153E17F780F0690831AE0E3
:103EEA0004F07006908319E004F090831BE07002DE
:103EFA00A3E0600E90831CE024FFF090831BE03463
:093F0A00FFF012182EA20092D162
:103F1300D007D006D005D004D003D002D001D00002
:0B3F2300D0D0D082D083D0F0D0E032AC
:03182B00024CEB81
:024CEB00C0D037
:0F4CED00A2D19201D2D153F17FC2D1A20192D1B3
:034CFC00D0D032E3
:03184B00024ABB93
:044ABB00C0E0C0D0C7
:104ABF00A2D19202D2D1E58430E7097585FA5384E9
:0A4ACF007F758500C2D1A20292D1CA
:054AD900D0D0D0E03256
:0318530002182157
:011821003294
:03185B000249D966
:0849D900C0E0C083C082C0D021
:1049E100A2D19203D2D130ED08C2ED908180E5EBE6
:0749F100F0C2D1A20392D134
:0949F800D0D0D082D083D0E0328F
:10188E00000000000000000000000000000000004A
:10189E002A002B0051000000000028003A003B00F7
:1018AE003C003D003E003F0040004100420043002E
:1018BE004400450000002900000000000000000068
:1018CE002C001E2034202020212022202420340011
:1018DE002620272025202E2036002D003700380008
:1018EE0027001E001F0020002100220023002400DC
:1018FE00250026003320330036202E0037203820D6
:10190E001F200420052006200720082009200A2079
:10191E000B200C200D200E200F2010201120122045
:10192E0013201420152016201720182019201A20F5
:10193E001B201C201D202F003100300023202D20C5
:10194E0035000400050006000700080009000A0023
:10195E000B000C000D000E000F0010001100120005
:10196E0013001400150016001700180019001A00B5
:10197E001B001C001D002F203120302035204C0074
:10198E003A003B003C003D003E003F00400041005D
:10199E0042004300440045004500F102F802F120E8
:1019AE00F820F104F804F140F840F101F801F110CB
:1019BE00F81054005500560057006300580062009E
:1019CE0059005A005B005C005D005E005F00600025
:1019DE00610049004C004A004D004B004E00520081
:1019EE00510050004F00000049004C004A004D00CD
:1019FE004B004E005200510050004F0000005300AB
:101A0E00390047002C001E201F20344021202220A8
:101A1E0023202420252026203520350038002E00B6
:101A2E0037002D0027001E001F002000210022007D
:101A3E0023002400250026003720382064002720AC
:101A4E0064202D2014400920362019201C20072048
:101A5E0014201A20122015201D200D200F200E20DC
:101A6E000C20172013202F20182010200B200420CC
:101A7E000620302031203320112025402D402640D5
:101A8E0020202E2031400900360019001C000700CE
:101A9E0014001A00120016001D000D000F000E009B
:101AAE000C00170013002F00180010000B0004008C
:101ABE0006003000310033001100244064402740FE
:101ACE0030404C002C001E203500204021402220AA
:101ADE0023201F20252026202D00212031002E001E
:101AEE003800242027001E001F00200021002200A5
:101AFE0023002400250026003820312035402720E1
:101B0E001E402D201440042005200620072008200A
:101B1E0009200A200B200C200D200E200F20102053
:101B2E001120122013201420152016201720182003
:101B3E0019201A201B201C201D2025402D40264038
:101B4E0020202E203140040005000600070008006A
:101B5E0009000A000B0034000D000E000F001000EB
:101B6E0011001200130014001500160017001800C3
:101B7E0019001A001B001C001D0024402E40274097
:101B8E0030404C002C001E201F20204021202220FF
:101B9E002320340025202620302030003600380047
:101BAE003700242027001E001F00200021002200E5
:101BBE00230024002500260037203620640027202D
:101BCE0064202D201F400420052006200720082019
:101BDE0009200A200B200C200D200E200F20102093
:101BEE001120122013201420152016201720182043
:101BFE0019201A201B201C201D202F40354030405C
:101C0E002F2038202F0004000500060007000800D2
:101C1E0009000A000B000C000D000E000F00100052
:101C2E001100120013001400150016001700180002
:101C3E0019001A001B001C001D0034401E403140CC
:101C4E0021404C002C001E201F202020212022206D
:101C5E0023202D00252026202F202F00360038008F
:101C6E003700242027001E001F0020002100220024
:101C7E00230024002500260037203620640027206C
:101C8E0064202D201F400420052006200720082058
:101C9E0009200A200B200C200D200E200F201020D2
:101CAE001120122013201420152016201720182082
:101CBE0019201A201B201C201D20254035002640EF
:101CCE0031203820302004000500060007000800EF
:101CDE0009000A000B000C000D000E000F00100092
:101CEE001100120013001400150016001700180042
:101CFE0019001A001B001C001D002440352027402F
:101D0E0031004C002C0038002000204030003420E0
:101D1E001E00210022002D0032002E201000230074
:101D2E003620372027201E201F2020202120222071
:101D3E0023202420252026203700360064002E0084
:101D4E00642010202740142005200620072008209C
:101D5E0009200A200B200C200D200E200F203320EE
:101D6E0011201220132004201520162017201820D1
:101D7E0019201D201B201C201A20224025402D40FA
:101D8E002640250024401400050006000700080028
:101D9E0009000A000B000C000D000E000F003300AE
:101DAE001100120013000400150016001700180091
:101DBE0019001D001B001C001A00214023402E405C
:101DCE001F404C002C001E201F20320021202220FC
:101DDE0023203220252026203020300036003800E7
:101DEE003700242027001E001F00200021002200A3
:101DFE0023002400250026003720362064002720EB
:101E0E0064202D20144004200520062007200820E1
:101E1E0009200A200B200C200D200E200F20102050
:101E2E001120122013201420152016201720182000
:101E3E0019201A201B201D201C2025402D40264035
:101E4E00350038202E20040005000600070008008B
:101E5E0009000A000B000C000D000E000F00100010
:101E6E0011001200130014001500160017001800C0
:101E7E0019001A001B001D001C002440644027405E
:101E8E0030404C002C001E201F20344021202220E8
:101E9E0023202D002520262030203000360038004B
:101EAE003700242027001E001F00200021002200E2
:101EBE00230024002500260037203620640027202A
:101ECE0064202D2033400420052006200720082002
:101EDE0009200A200B200C200D200E200F20102090
:101EEE001120122013201420152016201720182040
:101EFE0019201A201B201C201D202F403500304099
:101F0E002E203820000004000500060007000800FF
:101F1E0009000A000B000C000D000E000F0010004F
:101F2E0011001200130014001500160017001800FF
:101F3E0019001A001B001C001D00000035200000B7
:101F4E0000004C002C001E201F20310021202220DA
:101F5E00242034002620272025202E2036002D0078
:101F6E003700380027001E001F002000210022002D
:101F7E0023002400250026003320330036202E00B7
:101F8E003720382034200420052006200720082082
:101F9E0009200A200B200C200D200E200F201020CF
:101FAE00112012201320142015201620172018207F
:101FBE0019201A201B201C201D202F006400300029
:101FCE0023202D2035000400050006000700080020
:101FDE0009000A000B000C000D000E000F0010008F
:101FEE00110012001300140015001600170018003F
:101FFE0019001A001B001C001D002F206420302029
:10200E0031204C002C00342033201B4033402D2037
:10201E00064031203020300038401E003600380097
:10202E0037002F2027201E201F2020202120222095
:10203E0023202420252026203720350036402D0051
:10204E00374036201940042005200620072008209E
:10205E0009200A200B200C200D200E200F2010200E
:10206E0011201220132014201520162017201820BE
:10207E0019201A201B201D201C20094014400A4044
:10208E002040382024400400050006000700080008
:10209E0009000A000B000C000D000E000F001000CE
:1020AE00110012001300140015001600170018007E
:1020BE0019001A001B001D001C0005401A4011409B
:1020CE001E404C002C001E201F20202021202220EC
:1020DE0023202420252026203420332036002D00D6
:1020EE003700380027001E001F00200021002200AC
:1020FE0023002400250026003400330036202D2036
:10210E00372038202F000420052006200720082025
:10211E0009200A200B200C200D200E200F2010204D
:10212E0011201220132014201520162017201820FD
:10213E0019201A201B201C201D2030008700310082
:10214E002E0087202F20040005000600070008003F
:10215E0009000A000B000C000D000E000F0010000D
:10216E0011001200130014001500160017001800BD
:10217E0019001A001B001C001D0030208920312080
:10218E002E204C00FF188EFF1AD2FF1B92FF1C52FE
:10219E00FF1D12FF1DD2FF1E92FF1F52FF2012FFC6
:0221AE0020D23D
:10420C00500173E20100E10100270170220101233A
:10421C00010225010831011030045F6E7D8C2A04E7
:10422C005F6E7D8C3F0512EC6FA1463A06D521EBF3
:10423C002C5A4039011F3E03F6375D3B030BDF025E
:10424C003C01013D01262601CF240132210101FF51
:10425C000A6D679C46F6375D4521EFAC5A50E10B71
:02426C00DF026F
:09285C0007080000005F6E7D8C8E
:104C18009081B6EDF0C2D1C2B41247429081B6E09D
:094C2800FF124742C2D1D2B422AE
:0B443C009081BCEBF0A3EAF0A3E9F0D4
:10444700C2D1C2B4124742E49081C0F09081BFE06C
:10445700FFA3E0C39F501F9081BCE0FBA3E475F06E
:1044670001122C8FA9F0FA122BCCFF124742908130
:0A447700C0E004F080D6C2D1D2B438
:014481002218
:104959009081BEEBF0A3EAF0A3E9F0C2D1C2B41290
:104969004742E4FF1247429081BEE0FBA3E0FAA36D
:0B497900E0F9EF122C12C2D1D2B422E0
:0B4367009081BFEBF0A3EAF0A3E9F0A7
:10437200C2D1C2B4124742E49081C3F09081C2E03C
:10438200FFA3E0C39F5021E4FF1247429081BFE0A8
:10439200FBA3E475F001122C8FA9F0FAEF122C1294
:0C43A2009081C3E004F080D4C2D1D2B4FA
:0143AE0022EC
:074EF900E4FD7FE1024C180B
:074F0000E4FD7FE2024C1802
:104D4C00EDD3941040027D109081BFEDF07FA00256
:024D5C00443CD5
:104877009081AAE0FBA3E0FAA3E0F9A3E09081BA54
:03488700F0E4FF5B
:10488A009081BAE0D3941040037410F0EF44A8FF6B
:0B489A009081BAE09081BFF002443C26
:0E426E009081B6EBF0A3EAF0A3E9F0A3EDF027
:10427C007B017A8179BD7F601249599081BDE0FF45
:10428C0060229081B9E0D39F4002EFF09081B6E0BC
:10429C00FBA3E0FAA3E0F9A3E09081C2F07F6112E6
:1042AC0043678005E49081B9F09081B9E0FFA3E009
:0B42BC00FBA3E0FAA3E0F9EF022C12D4
:10490100908188EBF0A3EAF0A3E9F09081BF7404F1
:10491100F07F3012443C908188E0FBA3E0FAA3E0F1
:0C492100F99081BF7404F07F2A02443C2E
:094EAE00EF547FFD7F25024C1832
:074F0700E4FD7FFD024C18E0
:074F0E00E4FD7FFC024C18DA
:0A4E7C00124F0E7D7F7F20024C18BC
:0A4E8600124F0E7DFF7F20024C1832
:0A4E9000124F0E7D7D7F20024C18AA
:084ED900124E7C7F02024C4ADC
:104C9300124F0E7DCE7F20124C18124EF97FFA125E
:074CA3004CAA7F82024CAA1B
:104D5E00124F0E7DBF7F20124C18124F007F0202A1
:024D6E004C4AAD
:084EE100124F077F02024C4A48
:084EE900124F077F02024C4A40
:094EB700EF5470FD7F27024C1836
:104D26007B017A8179B67F071249599081B6E054A2
:024D360070FF0C
:014D38002258
:104BAF00124F0E7D5A7F53124C187F05124C4A7DBF
:0B4BBF00A57F53124C187F14024C4AD3
:1035DA009081847442F0A3740CF0E4A3F0124BAF10
:1035EA00908186E0FF04F0908184E0FCA3E0FD2F47
:1035FA00F582E43CF583E493908182F0E0FFF47075
:10360A00030236BF908186E0FE04F0ED2EF582E4D7
:10361A003CF583E493908183F0E064016023908118
:10362A0086E0FD908185E02DFD908184E03400FAEA
:10363A00A9057BFF908183E09081BFF012443C8012
:01364A006619
:10364B00908182E0FF908186E0FE908184E0FCA374
:10365B00E02EF582E43CF583E493FD124C18908147
:10366B0082E054DF908187F0E0FFC39407400FEFB7
:10367B006411600AEF641C6005EF641D70287B0108
:10368B007A817987124959908186E0FF908184E095
:10369B00FCA3E02FF582E43CF583E493FF90818754
:0636AB00E06F6002C32283
:1036B100908183E0FF908186E02FF00235EA7F015F
:1036C100124C4A7808E6FF124EAE7B007A00790B65
:0436D100124901D3C6
:0136D50022D2
:0F36D6009081A7EFF09081A9EBF09081A8EDF023
:1036E500C2066003124ED9124E867F32124CAA9042
:1036F50081A7E0701C124C939081AAE0FBA3E0FA2D
:10370500A3E0F9A3E0FD124D4C124F00124EE180EB
:103715000F124D5E124EF9124877124877124EE994
:10372500E4780FF69081A9E0FF780FE6C39F507704
:05373500D2D120FBEFE2
:10373A00124D269081B5EFF060E59081A7E0700BFD
:10374A009081B5E030E54DD20680119081B5E03028
:10375A00E642124F0E7F03124C4AD2069081B1E024
:10376A00FDA3E0F9A3E0FAA3E09081BAC9F0A3EAC5
:10377A00F0A3E9F09081AEE0FBA3E0FAA3E0F9122E
:10378A00426E9081B2E0FBA3E0FAA3E0F9122BCCDF
:10379A007002C206124F00124EF99081B5E0FF1274
:0237AA004EB718
:1037AC00124E867F0A124CAA124E7C7F0A124CAA29
:0B37BC009081A8E06003124E90A2066E
:0137C70022DF
:053CC5009089BCEFF046
:103CCA00124CD6124F0E7D8E7F20124C187FC812CE
:103CDA004C4A9089BCE0FD7F25124C187D3F7F2617
:103CEA00124C187BFF7A42795C9081BF7405F07F91
:103CFA003F12443C7BFF7A4279649081BF7406F09C
:103D0A007F3A12443C7BFF7A42796A9081BF740100
:103D1A00F07F3912443C7BFF7A4279619081BF740B
:103D2A0003F07F3E12443C7BFF7A42796B9081BF5D
:103D3A007403F07F3B12443C7FFA124CAA124D8165
:023D4A0080FBFC
:031800000239F4B6
:1039F400787FE4F6D8FD9080007F007E10E4F0A389
:0A3A0400DFFCDEFA7581A7023A49E3
:102865004181E3004181E5004781DB00C2010000B1
:0628750000084181E600AD
:0B4E25009081E4E04402F04390102272
:0B4E30009081E4E04408F04390202251
:0B4E3B009081E4E04404F04398102252
:0B4E46009081E4E04410F0439820222B
:0B4E51009081E4E04401F075881F220E
:074F1500E4F589758806220E
:064C63007B007A0079607D
:104C6900E4FFEFC39D500A740129F9E43AFA0F8071
:014C7900F149
:014C7A002217
:1038B5009081C6EBF0A3EAF0A3E9F0A3ECF0A3ED49
:0138C500F012
:1038C6009081C9E0FEA3E0FF4E700302395190815A
:1038D600C6E0FBA3E0FAA3E0F9EA494B606DD3EF3B
:1038E6009440EE940040047F4080069081C9A3E096
:1038F600FF9081CBEFF0E0FFFDC39081CAE09DF021
:103906009081C9E09400F07E0078607C007D009094
:1039160081C6E0FBA3E0FAA3E0F9122BA69081CBC7
:10392600E0FFFD9081C7E48DF0122C798F897588B0
:10393600017B007A0079609081CBE0FD124C692012
:103946008F04308CFA22C28F0238C6E4F589758856
:013956000A66
:01395700224D
:0E4DA2008F89758801308FFDC28F75880A22B7
:094EC000758802308FFDC28F22BB
:054552009081ABEDF0CB
:10455700E4A3F0A3F0D2D1EDFF7E0078007C807D4C
:1045670001122BA69081ABE0F59175900120961C66
:10457700309404C29480159081ACE475F001122C3C
:0E45870079FED3E5F09410EE942740E1C29641
:014595002203
:054596009089B1EDF079
:10459B00E4A3F0A3F0D2D1EDFF7E0078807C807D88
:1045AB0001122BA69089B1E0F599759801209E1CFC
:1045BB00309C04C29C80159089B2E475F001122CDA
:0E45CB0079FED3E5F09410EE942740E1C29EF5
:0145D90022BF
:03181600C2A72244
:103958007860E6FF30E7739081E3E0FE7003023998
:10396800F0EF541F600D24FE601C04707BEEB40160
:103978000280759081E4E030E60678607602805D2A
:10398800E47860F680577864E6247F601A14603320
:10399800248270529081E4E030E006E47860F6809A
:1039A800047860760180369081E3E0B401028038C3
:1039B8009081E4E030E106786076018004E4786084
:1039C800F6801A9081E3E0B40102801C9081E4E063
:1039D80030E206786076018004E47860F6E4786185
:0C39E800F67F02024DA28000124E512218
:103E44009081E3E064026002806B7860E6FD6402C6
:103E540070567862E6700D08E6FE70087867E670C2
:103E640003EE6002804F7864E614602214602B2411
:103E740080600F0470309081E4E054FDF05390EFC3
:103E840080309081E4E054FBF05398EF80249081DB
:103E9400E4E054F7F05390DF80189081E4E054EFAD
:103EA400F05398DF800C800DED700A9081E4E054AB
:093EB400BFF0024F15124E51221D
:10407D009081E3E06402705B7860E6FD7018796210
:10408D00E77866460846786346640170469081E499
:10409D00E04440F0803AED640270387862E67033A7
:1040AD007866E6702E08E6702A7863E670257864E7
:1040BD00E614600F1460162480600D047015124E06
:1040CD0025800D124E308008124E3B8003124E4655
:0640DD00024F15124E51C6
:0140E30022BA
:1047E4007864E6701308E6700F08E6700B08E6704C
:1047F400079081E3E0B40203124E517862E6FF6051
:10480400089081E37401F08005E49081E3F08F8ADD
:03481400024F153B
:103F2E007867E6FF9081C4E4F0A3EFF0E0F8E4F0E8
:103F3E00E89081C4F07866E6FFA3E02FF09081C48C
:103F4E00E03400F09081E5E070227BFF7A2A793B25
:103F5E009081C4E0FEA3E0FFD39412EE94004006DD
:103F6E007C007D128026AC06AD0780207BFF7A2A6E
:103F7E0079819081C4E0FEA3E0FFD39412EE940009
:0F3F8E0040067C007D128004AC06AD071238B5EA
:013F9D002201
:103A8E007867E6FF9081C4E4F0A3EFF0E0F8E4F08D
:103A9E00E89081C4F07866E6FFA3E02FF09081C431
:103AAE00E03400F09081E5E070327BFF7A2A794DA8
:103ABE00902A4F93FFD39081C5E09F9081C4E094EC
:103ACE0000400C902A4FE4937E007C00FD803E90D7
:103ADE0081C4E0FEA3E0FFAC06FD80317BFF7A2AB5
:103AEE007993902A95E493FFD39081C5E09F9081BE
:103AFE00C4E09400400C902A95E4937E007C00FD77
:103B0E00800B9081C4E0FEA3E0FFAC06FD1238B539
:013B1E002284
:103493007867E6FF9081C4E4F0A3EFF0E0F8E4F08E
:1034A300E89081C4F07866E6FFA3E02FF09081C432
:1034B300E03400F07862E61460481460701470031E
:1034C30002355A1470030235841470030235AE2496
:1034D3000560030235D97BFF7A2979A59029A5E4F4
:1034E30093FF9081C4E0FCA3E0FDC39FEC940050E4
:1034F300030235D69029A5E493FF7E007C00FD02EC
:1035030035D67BFF7A2979A99029A9E493FF908185
:10351300C4E0FCA3E0FDC39FEC94005002800B9039
:1035230029A9E493FF7E007C00FD0235D67BFF7A58
:103533002979C99029C9E493FF9081C4E0FCA3E0F1
:10354300FDC39FEC94005002800B9029C9E493FFC4
:103553007E007C00FD807C7BFF7A2A7921902A21E2
:10356300E493FF9081C4E0FCA3E0FDC39FEC9400CF
:103573005002800B902A21E493FF7E007C00FD80A3
:10358300527BFF7A2979E99029E9E493FF9081C47A
:10359300E0FCA3E0FDC39FEC94005002800B902954
:1035A300E9E493FF7E007C00FD80287BFF7A2A7983
:1035B30003902A03E493FF9081C4E0FCA3E0FDC3DE
:1035C3009FEC94005002800B902A03E493FF7E004B
:0635D3007C00FD1238B57A
:0135D90022CF
:103F9E007867E6FF9081C4E4F0A3EFF0E0F8E4F078
:103FAE00E89081C4F07866E6FFA3E02FF09081C41C
:103FBE00E03400F07864E614602204703F124DB0D5
:103FCE009081C4E0FEA3E0FFD39409EE9400400676
:103FDE007C007D098023AC06AD07801D124DBE907E
:103FEE0081C4E0FEA3E0FFD39409EE940040067C6A
:0F3FFE00007D098004AC06AD070238B5124E51A4
:01400D002290
:104A51007864E614600D0470177BFF7A2879867DEF
:104A61003F80087BFF7A2979707D357C000238B55B
:044A7100124E51226E
:03181E00024E5126
:104482007866E66401701B08E670177865E67012BC
:1044920018E6700E18E6700A18E670069081E3E0DE
:1044A2007003124E519081E3E0FFB40106E478609C
:1044B200F6800DEFB40206786076018003024E5159
:0644C2007F01124DA22251
:1047B0007867E6702B7865E670267863E67021905E
:1047C00081E3E0700280197862E6FF70069081E371
:1047D000048009EFB401099081E37402F0024F15DF
:0447E000124E512202
:104984007866E6B4010E7862E6700908E670057888
:1049940067E66003124E519081E3E0640260031203
:0B49A4004E51E47860F67F01024DA246
:104A01007866E6701208E6700E7862E6700908E6CC
:104A110070057865E66003124E519081E3E064020F
:084A21006003124E51024F1513
:03182600024B77FB
:0C4DF5009081E2E07860F67F01024DA2A0
:104AFF007866E664016003124E519081E4E030E580
:104B0F0006E47860F68004786076017F01024DA29A
:1040E4007867E6FF9081C5E4F0A3EFF0E0F8E4F030
:1040F400E89081C5F07866E6FFA3E02FF09081C5D3
:10410400E03400F0E4908201F0124EC09081C4E5E6
:1041140089F07B007A007960E0FD124C69E0FF646D
:1041240001601D12400E9081C4E0FFC39081C6E07F
:104134009FFF9081C5E09400FEF0A3EFF04E70C99C
:03414400124F1502
:014147002255
:0A4E9A007863E69081E2F0024F1504
:104D39009081E4E054DFF07862E67004E04420F00A
:034D4900024F1501
:104ADE00758802308FFDC28FAD89124C6378DB7CF6
:104AEE00817D017A0079607E007F07122BA6024F2E
:014AFE0015A2
:104C7B0078607C007D007B017A8179DB7E007F0789
:084C8B00122BA67F07024DA2C7
:0A4EA4007862E69081E6F0024F15F7
:104B93009081E4E030E714D2D14380027F0A124CC3
:0C4BA3004A5380FD9081E4E0547FF02232
:104A29007863E624FE601114601124E260101460BA
:104A3900102421700F023F2E023A8E023493023F56
:084A49009E024A51124E512257
:084EF1007D08124C63C28F2200
:0B4E5C00D2D175800CC2D153AAFC22F9
:104D9200D2D175800DC2D143AA039081E5EFF022F2
:03188B0002319691
:10319600C0E0C0F0C083C082C0D075D000C000C0FF
:0D31A60001C002C003C004C005C006C00780
:1031B300A2D19207D2D1E58030E73E53807F908140
:1031C300E3E4F0A3F0F58A758802F58975900C7530
:1031D300980C75A00CF591F599F5A19081E6F09006
:1031E30081DBF0A374C2F0A37401F0A3E4F0A3F0B5
:1031F300A3F0A37408F0023312E58030E61653807F
:10320300BF9081E3E064026003023312A3E04480D1
:10321300F0023312E58030E50D5380DF9081E4E066
:10322300547FF0023312208F0302330C124EF178D5
:1032330060E65460706B08E6B40C0050759032473A
:10324300F828287302326B0232710232A2023277FB
:103253000232A202327D02328302328902328E02AC
:10326300329302329802329D12395802330C123EC5
:103273004402330C12407D02330C1247E402330C38
:10328300124A2902330C12181E807E12448280795E
:103293001247B08074124984806F124A01806A8099
:1032A300657860E6FF5460FEBE2007EF541F64019B
:1032B300600280527861E6122CA532DC0132E10211
:1032C30032E60332EB0932F00A32F50B32FF2032D9
:1032D300FA2133042200003309121826802B124DE1
:1032E300F58026124AFF80211240E4801C124E9A78
:1032F3008017124D398012124C7B800D124ADE80EA
:1033030008124EA48003124E5130A703121816A2BE
:033313000792D14D
:10331600D007D006D005D004D003D002D001D0000B
:0B332600D0D0D082D083D0F0D0E032B5
:1046D0009081B1EFF0A3EDF0D2D17E007F087D0094
:1046E0007B017A807900122CF89081B1E0908000F3
:1046F000F09081B2E0908002F075910875900120F1
:0A47000096053094FAC294C2962286
:1028860005010906A101050719E029E7150025013B
:1028960075019508810295017508810395067508ED
:1028A6001500258F05071900298F810095057501EB
:1028B6000508190129059102950175039103C005C3
:1028C600010902A10185010901A1000509190129D2
:1028D6000515002501950575018102950175038190
:1028E6000305010930093109381580257F750895DA
:1028F600038106C0C0050C0901A10185021500254A
:1029060001050C09B509B609B709CD09B309B4091A
:10291600B809B975019508810209E209E909EA09C8
:10292600B20A2A020A2B020A83010A92017501954C
:102936000881020A23020A24020A25020A26020A3A
:1029460027020A8A010A96010A94017501950881EF
:102956000205011500250109810982098395037580
:10296600018106950175058103C006A0FF0901A135
:10297600018501090826FF001500750895FFB102BB
:102986008502090826FF001500750895FFB1028526
:1029960003090826FF001500750895FFB102C0045B
:1029A600030904200342004100520043004F004443
:1029B60000450020005300430041004E004E0045F4
:1029C600005200200342004100520043004F0044E1
:1029D60000450020005300430041004E004E0045D4
:1029E6000052001A0355005300420020004B0065B8
:1029F60000790062006F006100720064001E0355DA
:102A060000530042002000560045004E0044004599
:102A160000520020004800490044001A0353004EAB
:102A260000320030003100370030003600560045D5
:102A360000520031001201100100000040FFFF3576
:102A46000001000102030109023400020100A06432
:102A560009040000010301010409211001000122FB
:102A66003F0007058103400001090401000003003F
:102A76000005092110010001223500120110010292
:102A86000000404A29000101000102030109024336
:102A960000020100A0640904000001020201000511
:102AA6002400100105240101010424020205240664
:102AB60000010705810340000A09040100020A001B
:102AC60000000705820240000007050302400000DF
:0D4DB0007BFF7A2A794D741229F9E43AFA52
:014DBD0022D3
:0D4DBE007BFF7A2A794D742B29F9E43AFA2B
:014DCB0022C5
:0B4E6700C2D1758403E4F585F59722A5
:0A287B00C1084189BB004189BA0081
:0B44C800908181EFF0A3ECF0A3EDF079
:1044D300C2D1E4A3F0908181E0FF908184E0C39F87
:1044E3005027D290908182A3E0FF124C4AC2909051
:1044F3008181E064016007A3A3E0FF124C4A124DDF
:0945030081908184E004F080CC79
:01450C00228C
:0C4E0100300808300805124D8180F822AE
:10182E003008199089BAE004F0A3E0FF9089BAE07D
:0C183E00D39F4008C208E4F0C2D1C29061
:01184A00227B
:0C4E0D00D2089089BBEFF0C2D1D29022F5
:10185E00C2D175E3FF7593FF75A3FF75B3FF43B157
:10186E0010D2B443B120C2B5D2D175FB3F43F901BA
:0D187E0043FA0243FA0843F92043FA10220E
:104B3D00D2D17C007D30122CCBEF24FFFFEE34FF61
:0C4B4D00F5E58FE475E101E4F5E2F5E325
:014B59002239
:104B5A00D2D17C007D30122CCBEF24FFFFEE34FF44
:0C4B6A00F5F58FF475F101E4F5F2F5F3B8
:014B7600221C
:044BCA00AB07AA0685
:104BCE00EA540FF9AF03D2D175E888AE01EDC454A3
:064BDE00F04EF5E98FEA3C
:014BE40022AE
:104CFF00A2D19209D2D18FEBD2EA30ECFDC2ECA255
:034D0F000992D135
:014D1200227E
:1045DA009089A3EBF0A3EAF0A3E9F0A3ECF0A3ED32
:0145EA00F0E0
:1045EB00E4FDFCD39089A7E09D9089A6E09C401D3B
:1045FB009089A3E0FBA3E0FAA3E0F98D828C8312F0
:0D460B002BE5FF124CFF0DBD00010C80D609
:01461800227F
:0D4DE800D2D1EF70038D9622AF058FA62269
:0C4E1900D2D1EF7003F59522E4F5A5223C
:104D7000ED4420FED2D1EF70038E9522AF068FA5B1
:014D80002210
:1049AF00D2D1EF70118D97439510E59530E7FB53FA
:1049BF00956FAE978011AF058FA743A510E5A53072
:0949CF00E7FB53A56FAEA7AF068C
:0149D80022BC
:104C3100EE54FED2D1F5DFE4F5DE75DC7775DC3BB1
:084C4100E5DC30E7FB53DC7FEA
:014C49002248
:10450D009081EEEEF0A3EFF0E4FFFED39081EDE0AD
:10451D009F9081ECE09E402C9081EEE0FCA3E0F5B5
:10452D00828C83E493122C12740129F9E43AFA90E7
:10453D0081EFE004F070069081EEE004F00FBF0013
:04454D00010E80C714
:014551002247
:103D4C009081F2EBF0A3EAF0A3E9F09081F0EEF0B1
:033D5C00A3EFF0E2
:103D5F00EE54FE9081F0F0A3E4F0D2D1FDFCC3EC61
:103D6F00940250569081F0E0FAA3E0FBEAF5DF8B66
:103D7F00DE9081F6E09D9081F5E09C40179081F2F6
:103D8F00E0FBA3E475F001122C8FA9F0FA122BCCF3
:103D9F00F5DD800375DDFF75DC5D75DC74E5DC300A
:103DAF00E7FB53DC7F0DBD00010C9081F1E004F0C7
:0A3DBF0070AC9081F0E004F080A4E5
:013DC90022D7
:083B1F00908185EEF0A3EFF0A8
:103B2700D2D1E4FDFCD390818BE09D90818AE09C0B
:103B37004073908185E0F5DFA3E0F5DE122BCCF52D
:103B4700DD75DC5D75DC74E5DC30E7FB53DC7F900D
:103B57008185E0F5DFA3E0F5DE122BCCF5DD75DC22
:103B67005D75DC74E5DC30E7FB53DC7F908185E035
:103B7700F5DFA3E0F5DE122BCCF5DD75DC5D75DC3A
:103B870074E5DC30E7FB53DC7F740129F9E43AFA8A
:103B97000DBD00010C908186E004F070889081854E
:053BA700E004F0808045
:013BAC0022F6
:104BE500D2D17585FA7586F77585FAEFC454F04408
:0A4BF50009F5847585FAE4F58522C0
:104D8100A2D19206D2D17585FAE4F585A20692D117
:014D910022FF
:104CD600C2D143B110D2B443B120C2B5D2D143F947
:054CE6002043FA10223A
:10474200E4FDD2D1EF30E704D2FD8002C2FDEF25B5
:10475200E0FF0000C2D1D2B5EE25E0FED2D130FC9E
:10476200054401FE8004EE54FEFE0000C2D1C2B533
:074772000DEDB408CDAF0608
:01477900221D
:104CAA0000000000000000000000000000000000FA
:074CBA0000000000DFEA2208
:104C4A00AE077FFA124CAA7FFA124CAA7FFA124CCC
:094C5A00AA7FF8124CAADEEA223E
:1048A500124E67124E5C7F0A124C4A12185E7F0A3E
:1048B500124CAA7F05124BE57FE87E03124B3D1291
:0E48C5004CD6E4FD7FC37E09124BCA024DDAC9
:0B46570090819FEBF0A3EAF0A3E9F0D4
:104662007F40D2D1E4FEE4F5DFAD070F8DDE75DCCD
:104672007475DC1690819FE0FBA3E475F001122CA7
:104682008FA9F0FAE5DD122C1253DC7F0EEEB4088E
:01469200D552
:014693002204
:0E477A009089ADEBF0A3EAF0A3E9F0A3EDF017
:10478800E4FFFE9089B0E0FDEFC39D50189089AD1D
:10479800E0FBA3E0FAA3E0F98F82758300122BE512
:0747A8006EFE0F80DEAF067C
:0147AF0022E7
:0D4DCC0012477A9089ACE0B50702D322C3EC
:014DD90022B7
:0B48D3009089B4EBF0A3EAF0A3E9F039
:1048DE00E4FFEFC39D501A9089B4E0FBA3E0FAA366
:1048EE00E0F98F82758300122BE56002C3220F80E0
:0248FE00E1D304
:014900002294
:0B492D009089B7EBF0A3EAF0A3E9F0DB
:10493800E4FFFEEEC39D50189089B7E0FBA3E0FAB0
:10494800A3E0F98E82758300122BE52FFF0E80E31A
:01495800223C
:0E3C39009081F7EBF0A3EAF0A3E9F0A3EDF021
:103C470074FF9081FCF0A3F0E49081FBF09081FA7F
:103C5700E0FFA3E0FEC39F505C9081F7E0FBA3E089
:103C6700FAA3E0F98E82758300122BE5FE9081FCA2
:103C7700E06EF0A3E0F0E4FD9081FCE0FEA3E0FF3E
:103C8700EE30E717EF25E0FFEE336410FEEF642117
:103C9700FF9081FCEEF0A3EFF0800D9081FDE02511
:103CA700E0F09081FCE033F00DEDB408CB9081FBA0
:0D3CB700E004F080989081FCE0FEA3E0FFA7
:013CC40022DD
:0E4DDA00C2D175A810E4F5A975AA03F5AB22A5
:103A0E00024148E493A3F8E493A34003F68001F245
:103A1E0008DFF48029E493A3F85407240CC8C333B9
:103A2E00C4540F4420C8834004F456800146F6DF88
:103A3E00E4800B01020408102040809021B0E47E47
:103A4E00019360BCA3FF543F30E509541FFEE4937D
:103A5E00A360010ECF54C025E060A840B8E493A344
:103A6E00FAE493A3F8E493A3C8C582C8CAC583CA6F
:103A7E00F0A3C8C582C8CAC583CADFE9DEE780BE27
:012885000052
:102AD600E709F608DFFA8046E709F208DFFA803EE2
:102AE60088828C83E709F0A3DFFA8032E309F608CF
:102AF600DFFA8078E309F208DFFA807088828C8337
:102B0600E309F0A3DFFA806489828A83E0A3F608EA
:102B1600DFFA805889828A83E0A3F208DFFA804CC4
:102B260080D280FA80C680D4806980F2803380109B
:102B360080A680EA809A80A880DA80E280CA803304
:102B460089828A83ECFAE493A3C8C582C8CCC5837C
:102B5600CCF0A3C8C582C8CCC583CCDFE9DEE7804C
:102B66000D89828A83E493A3F608DFF9ECFAA9F0CB
:102B7600EDFB2289828A83ECFAE0A3C8C582C8CC21
:102B8600C583CCF0A3C8C582C8CCC583CCDFEADE3A
:102B9600E880DB89828A83E493A3F208DFF980CC9C
:102BA60088F0EF60010E4E60C388F0ED2402B40495
:102BB6000050B9F582EB2402B4040050AF2323453C
:062BC6008223902B267310
:102BCC00BB010689828A83E0225002E722BBFE0207
:092BDC00E32289828A83E493223A
:102BE500BB010CE58229F582E5833AF583E02250A5
:102BF50006E92582F8E622BBFE06E92582F8E222EF
:0D2C0500E58229F582E5833AF583E4932208
:102C1200BB010689828A83F0225002F722BBFE01A1
:022C2200F3229B
:102C2400BC000BBE0029EF8DF084FFADF022E4CC94
:102C3400F875F008EF2FFFEE33FEEC33FCEE9DEC5D
:102C4400984005FCEE9DFE0FD5F0E9E4CEFD22EDA3
:102C5400F8F5F0EE8420D21CFEADF075F008EF2FED
:102C6400FFED33FD4007985006D5F0F222C398FDDE
:052C74000FD5F0EA227B
:102C7900C5F0F8A3E028F0C5F0F8E58215827002E6
:062C89001583E038F02283
:102C8F00A3F8E0C5F025F0F0E582158270021583F8
:062C9F00E0C838F0E82255
:102CA500D083D082F8E4937012740193700DA3A3BE
:102CB50093F8740193F5828883E4737402936860D2
:062CC500EFA3A3A380DFD2
:102CCB00EC8EF0A4CCC5F0CCCDF8EFA4CEC5F02D96
:102CDB00FDE43CFCE8A42EC8C5F03DFDE43CFCEF54
:0D2CEB00A4FFE5F028FEE43DFDE43CFC22E2
:102CF800EF4E6012EF60010EEDBB010B89828A83F3
:102D0800F0A3DFFCDEFA2289F05007F709DFFCA9FF
:0C2D1800F022BBFEFCF309DFFCA9F02256
:00000001FF
